{
  "abi": [
    {
      "inputs": [
        {
          "internalType": "address",
          "name": "_libAddressManager",
          "type": "address"
        }
      ],
      "payable": false,
      "stateMutability": "nonpayable",
      "type": "constructor"
    },
    {
      "constant": true,
      "inputs": [],
      "name": "messageNonce",
      "outputs": [
        {
          "internalType": "uint256",
          "name": "",
          "type": "uint256"
        }
      ],
      "payable": false,
      "stateMutability": "view",
      "type": "function"
    },
    {
      "constant": false,
      "inputs": [
        {
          "internalType": "address",
          "name": "_target",
          "type": "address"
        },
        {
          "internalType": "address",
          "name": "_sender",
          "type": "address"
        },
        {
          "internalType": "bytes",
          "name": "_message",
          "type": "bytes"
        },
        {
          "internalType": "uint256",
          "name": "_messageNonce",
          "type": "uint256"
        }
      ],
      "name": "relayMessage",
      "outputs": [],
      "payable": false,
      "stateMutability": "nonpayable",
      "type": "function"
    },
    {
      "constant": true,
      "inputs": [
        {
          "internalType": "bytes32",
          "name": "",
          "type": "bytes32"
        }
      ],
      "name": "relayedMessages",
      "outputs": [
        {
          "internalType": "bool",
          "name": "",
          "type": "bool"
        }
      ],
      "payable": false,
      "stateMutability": "view",
      "type": "function"
    },
    {
      "constant": true,
      "inputs": [
        {
          "internalType": "string",
          "name": "_name",
          "type": "string"
        }
      ],
      "name": "resolve",
      "outputs": [
        {
          "internalType": "address",
          "name": "_contract",
          "type": "address"
        }
      ],
      "payable": false,
      "stateMutability": "view",
      "type": "function"
    },
    {
      "constant": false,
      "inputs": [
        {
          "internalType": "address",
          "name": "_target",
          "type": "address"
        },
        {
          "internalType": "bytes",
          "name": "_message",
          "type": "bytes"
        },
        {
          "internalType": "uint32",
          "name": "_gasLimit",
          "type": "uint32"
        }
      ],
      "name": "sendMessage",
      "outputs": [],
      "payable": false,
      "stateMutability": "nonpayable",
      "type": "function"
    },
    {
      "constant": true,
      "inputs": [
        {
          "internalType": "bytes32",
          "name": "",
          "type": "bytes32"
        }
      ],
      "name": "sentMessages",
      "outputs": [
        {
          "internalType": "bool",
          "name": "",
          "type": "bool"
        }
      ],
      "payable": false,
      "stateMutability": "view",
      "type": "function"
    },
    {
      "constant": true,
      "inputs": [
        {
          "internalType": "bytes32",
          "name": "",
          "type": "bytes32"
        }
      ],
      "name": "successfulMessages",
      "outputs": [
        {
          "internalType": "bool",
          "name": "",
          "type": "bool"
        }
      ],
      "payable": false,
      "stateMutability": "view",
      "type": "function"
    },
    {
      "constant": true,
      "inputs": [],
      "name": "xDomainMessageSender",
      "outputs": [
        {
          "internalType": "address",
          "name": "",
          "type": "address"
        }
      ],
      "payable": false,
      "stateMutability": "view",
      "type": "function"
    }
  ],
  "evm": {
    "bytecode": {
      "linkReferences": {},
      "object": "60806040523480156200001c5760008062000019620000a0565b50505b506040516200182d3803806200182d8339818101604052620000429190810190620001f3565b8080600560006101000a816200005762000110565b8173ffffffffffffffffffffffffffffffffffffffff021916908373ffffffffffffffffffffffffffffffffffffffff160217906200009562000175565b505050505062000283565b632a2a7adb598160e01b8152600481016020815285602082015260005b86811015620000dd578086015181604084010152602081019050620000bd565b506020828760640184336000905af158600e01573d6000803e3d6000fd5b3d6001141558600a015760016000f35b505050565b6303daa959598160e01b8152836004820152602081602483336000905af158600e01573d6000803e3d6000fd5b3d6001141558600a015760016000f35b8051935060005b6040811015620001705760008183015260208101905062000154565b505050565b6322bd64c0598160e01b8152836004820152846024820152600081604483336000905af158600e01573d6000803e3d6000fd5b3d6001141558600a015760016000f35b60005b6040811015620001d757600081830152602081019050620001bb565b505050565b600081519050620001ed816200025e565b92915050565b60006020828403121562000211576000806200020e620000a0565b50505b60006200022184828501620001dc565b91505092915050565b600062000237826200023e565b9050919050565b600073ffffffffffffffffffffffffffffffffffffffff82169050919050565b62000269816200022a565b811462000280576000806200027d620000a0565b50505b50565b61159a80620002936000396000f3fe608060405234801561001957600080610016610947565b50505b50600436106100915760003560e01c806382e3702d1161006457806382e3702d14610139578063b1b1b20914610169578063cbd4ece914610199578063ecc70428146101b557610091565b806321d800ec1461009f5780633dbb202b146100cf578063461a4478146100eb5780636e296e451461011b575b60008061009c610947565b50505b6100b960048036036100b49190810190610f75565b6101d3565b6040516100c6919061127b565b60405180910390f35b6100e960048036036100e49190810190610efc565b6101fa565b005b61010560048036036101009190810190610fa7565b610295565b6040516101129190611214565b60405180910390f35b610123610375565b6040516101309190611214565b60405180910390f35b610153600480360361014e9190810190610f75565b6103a2565b604051610160919061127b565b60405180910390f35b610183600480360361017e9190810190610f75565b6103c9565b604051610190919061127b565b60405180910390f35b6101b360048036036101ae9190810190610e6f565b6103f0565b005b6101bd610673565b6040516101ca919061131a565b60405180910390f35b6000602052806000526040600020600091506101ed6109b5565b906101000a900460ff1681565b6060610219845a610209610a18565b8560036102146109b5565b610680565b905061022b818363ffffffff16610720565b600160036000828261023b6109b5565b019250508190610249610a75565b5050506001600260008380519060200120815260200190815260200160002060006101000a816102776109b5565b8160ff0219169083151502179061028c610a75565b50505050505050565b600060056000906102a46109b5565b906101000a900473ffffffffffffffffffffffffffffffffffffffff1673ffffffffffffffffffffffffffffffffffffffff1663bf40fac1836040518263ffffffff1660e01b81526004016102f991906112b8565b602060405180830381868061030c610ada565b1580156103215760008061031e610947565b50505b505a61032b610b3d565b505050505015801561034a573d6000803e3d6000610347610947565b50505b505050506040513d601f19601f8201168201806040525061036e9190810190610e3d565b9050919050565b60046000906103826109b5565b906101000a900473ffffffffffffffffffffffffffffffffffffffff1681565b6002602052806000526040600020600091506103bc6109b5565b906101000a900460ff1681565b6001602052806000526040600020600091506103e36109b5565b906101000a900460ff1681565b600115156103fc6107f2565b151514610447576040517f08c379a0000000000000000000000000000000000000000000000000000000008152600401610435906112fa565b60405180910390610444610947565b50505b606061045585858585610680565b90506000151560016000838051906020012081526020019081526020016000206000906104806109b5565b906101000a900460ff161515146104d5576040517f08c379a00000000000000000000000000000000000000000000000000000000081526004016104c3906112da565b604051809103906104d2610947565b50505b83600460006101000a816104e76109b5565b8173ffffffffffffffffffffffffffffffffffffffff021916908373ffffffffffffffffffffffffffffffffffffffff16021790610523610a75565b50505060008573ffffffffffffffffffffffffffffffffffffffff168460405161054d91906111c4565b6000604051808303816000865a610562610bf4565b5050505050509150503d8060008114610597576040519150601f19603f3d011682016040523d82523d6000602084013e61059c565b606091505b505090506001151581151514156105f05760018060008480519060200120815260200190815260200160002060006101000a816105d76109b5565b8160ff021916908315150217906105ec610a75565b5050505b6000825a6105fc610a18565b5a610605610cab565b604051602001610617939291906111db565b604051602081830303815290604052805190602001209050600160008083815260200190815260200160002060006101000a816106526109b5565b8160ff02191690831515021790610667610a75565b50505050505050505050565b600361067d6109b5565b81565b606084848484604051602401610699949392919061122f565b6040516020818303038152906040527fcbd4ece9000000000000000000000000000000000000000000000000000000007bffffffffffffffffffffffffffffffffffffffffffffffffffffffff19166020820180517bffffffffffffffffffffffffffffffffffffffffffffffffffffffff83818316178352505050509050949350505050565b61075e6040518060400160405280601781526020017f4f564d5f4c32546f4c314d657373616765506173736572000000000000000000815250610295565b73ffffffffffffffffffffffffffffffffffffffff1663cafa81dc836040518263ffffffff1660e01b81526004016107969190611296565b600060405180830381600087806107ab610ada565b1580156107c0576000806107bd610947565b50505b505a6107ca610bf4565b5050505050501580156107ea573d6000803e3d60006107e7610947565b50505b505050505050565b60006108326040518060400160405280601a81526020017f4f564d5f4c3143726f7373446f6d61696e4d657373656e676572000000000000815250610295565b73ffffffffffffffffffffffffffffffffffffffff166108866040518060400160405280601381526020017f4f564d5f4c314d65737361676553656e64657200000000000000000000000000815250610295565b73ffffffffffffffffffffffffffffffffffffffff1663d20341066040518163ffffffff1660e01b8152600401602060405180830381600087806108c8610ada565b1580156108dd576000806108da610947565b50505b505a6108e7610bf4565b505050505050158015610907573d6000803e3d6000610904610947565b50505b505050506040513d601f19601f8201168201806040525061092b9190810190610e3d565b73ffffffffffffffffffffffffffffffffffffffff1614905090565b632a2a7adb598160e01b8152600481016020815285602082015260005b86811015610982578086015181604084010152602081019050610964565b506020828760640184336000905af158600e01573d6000803e3d6000fd5b3d6001141558600a015760016000f35b505050565b6303daa959598160e01b8152836004820152602081602483336000905af158600e01573d6000803e3d6000fd5b3d6001141558600a015760016000f35b8051935060005b6040811015610a13576000818301526020810190506109f9565b505050565b6373509064598160e01b8152602081600483336000905af158600e01573d6000803e3d6000fd5b3d6001141558600a015760016000f35b8051935060005b6040811015610a7057600081830152602081019050610a56565b505050565b6322bd64c0598160e01b8152836004820152846024820152600081604483336000905af158600e01573d6000803e3d6000fd5b3d6001141558600a015760016000f35b60005b6040811015610ad557600081830152602081019050610abb565b505050565b638435035b598160e01b8152836004820152602081602483336000905af158600e01573d6000803e3d6000fd5b3d6001141558600a015760016000f35b8051935060005b6040811015610b3857600081830152602081019050610b1e565b505050565b638540661f598160e01b8152836004820152846024820152606060448201528660648201526084810160005b88811015610b84578088015181830152602081019050610b69565b506060828960a40184336000905af158600e01573d6000803e3d6000fd5b3d6001141558600a015760016000f35b815160408301513d6000853e8b8b82606087013350600060045af15059845b81811015610be85760008152602081019050610bd1565b50829c50505050505050565b6385979f76598160e01b8152836004820152846024820152606060448201528760648201526084810160005b89811015610c3b578089015181830152602081019050610c20565b506060828a60a40184336000905af158600e01573d6000803e3d6000fd5b3d6001141558600a015760016000f35b815160408301513d6000853e8c8c82606087013350600060045af15059845b81811015610c9f5760008152602081019050610c88565b50829d50505050505050565b635a98c361598160e01b8152602081600483336000905af158600e01573d6000803e3d6000fd5b3d6001141558600a015760016000f35b8051935060005b6040811015610d0357600081830152602081019050610ce9565b505050565b600081359050610d178161151a565b92915050565b600081519050610d2c8161151a565b92915050565b600081359050610d418161153a565b92915050565b600082601f830112610d6157600080610d5e610947565b50505b8135610d74610d6f8261136b565b611335565b91508082526020830160208301858383011115610d9957600080610d96610947565b50505b610da483828461148c565b50505092915050565b600082601f830112610dc757600080610dc4610947565b50505b8135610dda610dd5826113a0565b611335565b91508082526020830160208301858383011115610dff57600080610dfc610947565b50505b610e0a83828461148c565b50505092915050565b600081359050610e228161155a565b92915050565b600081359050610e378161157a565b92915050565b600060208284031215610e5857600080610e55610947565b50505b6000610e6684828501610d1d565b91505092915050565b60008060008060808587031215610e8e57600080610e8b610947565b50505b6000610e9c87828801610d08565b9450506020610ead87828801610d08565b935050604085013567ffffffffffffffff811115610ed357600080610ed0610947565b50505b610edf87828801610d47565b9250506060610ef087828801610e13565b91505092959194509250565b600080600060608486031215610f1a57600080610f17610947565b50505b6000610f2886828701610d08565b935050602084013567ffffffffffffffff811115610f4e57600080610f4b610947565b50505b610f5a86828701610d47565b9250506040610f6b86828701610e28565b9150509250925092565b600060208284031215610f9057600080610f8d610947565b50505b6000610f9e84828501610d32565b91505092915050565b600060208284031215610fc257600080610fbf610947565b50505b600082013567ffffffffffffffff811115610fe557600080610fe2610947565b50505b610ff184828501610dad565b91505092915050565b61100b6110068261142a565b6114ce565b82525050565b61101a81611418565b82525050565b6110298161143c565b82525050565b600061103a826113d5565b61104481856113eb565b935061105481856020860161149b565b61105d816114fc565b840191505092915050565b6000611073826113d5565b61107d81856113fc565b935061108d81856020860161149b565b80840191505092915050565b60006110a4826113e0565b6110ae8185611407565b93506110be81856020860161149b565b6110c7816114fc565b840191505092915050565b60006110df602b83611407565b91507f50726f7669646564206d6573736167652068617320616c72656164792062656560008301527f6e2072656365697665642e0000000000000000000000000000000000000000006020830152604082019050919050565b6000611145602783611407565b91507f50726f7669646564206d65737361676520636f756c64206e6f7420626520766560008301527f7269666965642e000000000000000000000000000000000000000000000000006020830152604082019050919050565b6111a781611472565b82525050565b6111be6111b982611472565b6114f2565b82525050565b60006111d08284611068565b915081905092915050565b60006111e78286611068565b91506111f38285610ffa565b60148201915061120382846111ad565b602082019150819050949350505050565b60006020820190506112296000830184611011565b92915050565b60006080820190506112446000830187611011565b6112516020830186611011565b8181036040830152611263818561102f565b9050611272606083018461119e565b95945050505050565b60006020820190506112906000830184611020565b92915050565b600060208201905081810360008301526112b0818461102f565b905092915050565b600060208201905081810360008301526112d28184611099565b905092915050565b600060208201905081810360008301526112f3816110d2565b9050919050565b6000602082019050818103600083015261131381611138565b9050919050565b600060208201905061132f600083018461119e565b92915050565b6000604051905081810181811067ffffffffffffffff821117156113615760008061135e610947565b50505b8060405250919050565b600067ffffffffffffffff82111561138b57600080611388610947565b50505b601f19601f8301169050602081019050919050565b600067ffffffffffffffff8211156113c0576000806113bd610947565b50505b601f19601f8301169050602081019050919050565b600081519050919050565b600081519050919050565b600082825260208201905092915050565b600081905092915050565b600082825260208201905092915050565b600061142382611452565b9050919050565b600061143582611452565b9050919050565b60008115159050919050565b6000819050919050565b600073ffffffffffffffffffffffffffffffffffffffff82169050919050565b6000819050919050565b600063ffffffff82169050919050565b82818337600083830152505050565b60005b838110156114b957808201518184015260208101905061149e565b838111156114c8576000848401525b50505050565b60006114d9826114e0565b9050919050565b60006114eb8261150d565b9050919050565b6000819050919050565b6000601f19601f8301169050919050565b60008160601b9050919050565b61152381611418565b811461153757600080611534610947565b50505b50565b61154381611448565b811461155757600080611554610947565b50505b50565b61156381611472565b811461157757600080611574610947565b50505b50565b6115838161147c565b811461159757600080611594610947565b50505b5056",
      "opcodes": "PUSH1 0x80 PUSH1 0x40 MSTORE CALLVALUE DUP1 ISZERO PUSH3 0x1C JUMPI PUSH1 0x0 DUP1 PUSH3 0x19 PUSH3 0xA0 JUMP JUMPDEST POP POP JUMPDEST POP PUSH1 0x40 MLOAD PUSH3 0x182D CODESIZE SUB DUP1 PUSH3 0x182D DUP4 CODECOPY DUP2 DUP2 ADD PUSH1 0x40 MSTORE PUSH3 0x42 SWAP2 SWAP1 DUP2 ADD SWAP1 PUSH3 0x1F3 JUMP JUMPDEST DUP1 DUP1 PUSH1 0x5 PUSH1 0x0 PUSH2 0x100 EXP DUP2 PUSH3 0x57 PUSH3 0x110 JUMP JUMPDEST DUP2 PUSH20 0xFFFFFFFFFFFFFFFFFFFFFFFFFFFFFFFFFFFFFFFF MUL NOT AND SWAP1 DUP4 PUSH20 0xFFFFFFFFFFFFFFFFFFFFFFFFFFFFFFFFFFFFFFFF AND MUL OR SWAP1 PUSH3 0x95 PUSH3 0x175 JUMP JUMPDEST POP POP POP POP POP PUSH3 0x283 JUMP JUMPDEST PUSH4 0x2A2A7ADB MSIZE DUP2 PUSH1 0xE0 SHL DUP2 MSTORE PUSH1 0x4 DUP2 ADD PUSH1 0x20 DUP2 MSTORE DUP6 PUSH1 0x20 DUP3 ADD MSTORE PUSH1 0x0 JUMPDEST DUP7 DUP2 LT ISZERO PUSH3 0xDD JUMPI DUP1 DUP7 ADD MLOAD DUP2 PUSH1 0x40 DUP5 ADD ADD MSTORE PUSH1 0x20 DUP2 ADD SWAP1 POP PUSH3 0xBD JUMP JUMPDEST POP PUSH1 0x20 DUP3 DUP8 PUSH1 0x64 ADD DUP5 CALLER PUSH1 0x0 SWAP1 GAS CALL PC PUSH1 0xE ADD JUMPI RETURNDATASIZE PUSH1 0x0 DUP1 RETURNDATACOPY RETURNDATASIZE PUSH1 0x0 REVERT JUMPDEST RETURNDATASIZE PUSH1 0x1 EQ ISZERO PC PUSH1 0xA ADD JUMPI PUSH1 0x1 PUSH1 0x0 RETURN JUMPDEST POP POP POP JUMP JUMPDEST PUSH4 0x3DAA959 MSIZE DUP2 PUSH1 0xE0 SHL DUP2 MSTORE DUP4 PUSH1 0x4 DUP3 ADD MSTORE PUSH1 0x20 DUP2 PUSH1 0x24 DUP4 CALLER PUSH1 0x0 SWAP1 GAS CALL PC PUSH1 0xE ADD JUMPI RETURNDATASIZE PUSH1 0x0 DUP1 RETURNDATACOPY RETURNDATASIZE PUSH1 0x0 REVERT JUMPDEST RETURNDATASIZE PUSH1 0x1 EQ ISZERO PC PUSH1 0xA ADD JUMPI PUSH1 0x1 PUSH1 0x0 RETURN JUMPDEST DUP1 MLOAD SWAP4 POP PUSH1 0x0 JUMPDEST PUSH1 0x40 DUP2 LT ISZERO PUSH3 0x170 JUMPI PUSH1 0x0 DUP2 DUP4 ADD MSTORE PUSH1 0x20 DUP2 ADD SWAP1 POP PUSH3 0x154 JUMP JUMPDEST POP POP POP JUMP JUMPDEST PUSH4 0x22BD64C0 MSIZE DUP2 PUSH1 0xE0 SHL DUP2 MSTORE DUP4 PUSH1 0x4 DUP3 ADD MSTORE DUP5 PUSH1 0x24 DUP3 ADD MSTORE PUSH1 0x0 DUP2 PUSH1 0x44 DUP4 CALLER PUSH1 0x0 SWAP1 GAS CALL PC PUSH1 0xE ADD JUMPI RETURNDATASIZE PUSH1 0x0 DUP1 RETURNDATACOPY RETURNDATASIZE PUSH1 0x0 REVERT JUMPDEST RETURNDATASIZE PUSH1 0x1 EQ ISZERO PC PUSH1 0xA ADD JUMPI PUSH1 0x1 PUSH1 0x0 RETURN JUMPDEST PUSH1 0x0 JUMPDEST PUSH1 0x40 DUP2 LT ISZERO PUSH3 0x1D7 JUMPI PUSH1 0x0 DUP2 DUP4 ADD MSTORE PUSH1 0x20 DUP2 ADD SWAP1 POP PUSH3 0x1BB JUMP JUMPDEST POP POP POP JUMP JUMPDEST PUSH1 0x0 DUP2 MLOAD SWAP1 POP PUSH3 0x1ED DUP2 PUSH3 0x25E JUMP JUMPDEST SWAP3 SWAP2 POP POP JUMP JUMPDEST PUSH1 0x0 PUSH1 0x20 DUP3 DUP5 SUB SLT ISZERO PUSH3 0x211 JUMPI PUSH1 0x0 DUP1 PUSH3 0x20E PUSH3 0xA0 JUMP JUMPDEST POP POP JUMPDEST PUSH1 0x0 PUSH3 0x221 DUP5 DUP3 DUP6 ADD PUSH3 0x1DC JUMP JUMPDEST SWAP2 POP POP SWAP3 SWAP2 POP POP JUMP JUMPDEST PUSH1 0x0 PUSH3 0x237 DUP3 PUSH3 0x23E JUMP JUMPDEST SWAP1 POP SWAP2 SWAP1 POP JUMP JUMPDEST PUSH1 0x0 PUSH20 0xFFFFFFFFFFFFFFFFFFFFFFFFFFFFFFFFFFFFFFFF DUP3 AND SWAP1 POP SWAP2 SWAP1 POP JUMP JUMPDEST PUSH3 0x269 DUP2 PUSH3 0x22A JUMP JUMPDEST DUP2 EQ PUSH3 0x280 JUMPI PUSH1 0x0 DUP1 PUSH3 0x27D PUSH3 0xA0 JUMP JUMPDEST POP POP JUMPDEST POP JUMP JUMPDEST PUSH2 0x159A DUP1 PUSH3 0x293 PUSH1 0x0 CODECOPY PUSH1 0x0 RETURN INVALID PUSH1 0x80 PUSH1 0x40 MSTORE CALLVALUE DUP1 ISZERO PUSH2 0x19 JUMPI PUSH1 0x0 DUP1 PUSH2 0x16 PUSH2 0x947 JUMP JUMPDEST POP POP JUMPDEST POP PUSH1 0x4 CALLDATASIZE LT PUSH2 0x91 JUMPI PUSH1 0x0 CALLDATALOAD PUSH1 0xE0 SHR DUP1 PUSH4 0x82E3702D GT PUSH2 0x64 JUMPI DUP1 PUSH4 0x82E3702D EQ PUSH2 0x139 JUMPI DUP1 PUSH4 0xB1B1B209 EQ PUSH2 0x169 JUMPI DUP1 PUSH4 0xCBD4ECE9 EQ PUSH2 0x199 JUMPI DUP1 PUSH4 0xECC70428 EQ PUSH2 0x1B5 JUMPI PUSH2 0x91 JUMP JUMPDEST DUP1 PUSH4 0x21D800EC EQ PUSH2 0x9F JUMPI DUP1 PUSH4 0x3DBB202B EQ PUSH2 0xCF JUMPI DUP1 PUSH4 0x461A4478 EQ PUSH2 0xEB JUMPI DUP1 PUSH4 0x6E296E45 EQ PUSH2 0x11B JUMPI JUMPDEST PUSH1 0x0 DUP1 PUSH2 0x9C PUSH2 0x947 JUMP JUMPDEST POP POP JUMPDEST PUSH2 0xB9 PUSH1 0x4 DUP1 CALLDATASIZE SUB PUSH2 0xB4 SWAP2 SWAP1 DUP2 ADD SWAP1 PUSH2 0xF75 JUMP JUMPDEST PUSH2 0x1D3 JUMP JUMPDEST PUSH1 0x40 MLOAD PUSH2 0xC6 SWAP2 SWAP1 PUSH2 0x127B JUMP JUMPDEST PUSH1 0x40 MLOAD DUP1 SWAP2 SUB SWAP1 RETURN JUMPDEST PUSH2 0xE9 PUSH1 0x4 DUP1 CALLDATASIZE SUB PUSH2 0xE4 SWAP2 SWAP1 DUP2 ADD SWAP1 PUSH2 0xEFC JUMP JUMPDEST PUSH2 0x1FA JUMP JUMPDEST STOP JUMPDEST PUSH2 0x105 PUSH1 0x4 DUP1 CALLDATASIZE SUB PUSH2 0x100 SWAP2 SWAP1 DUP2 ADD SWAP1 PUSH2 0xFA7 JUMP JUMPDEST PUSH2 0x295 JUMP JUMPDEST PUSH1 0x40 MLOAD PUSH2 0x112 SWAP2 SWAP1 PUSH2 0x1214 JUMP JUMPDEST PUSH1 0x40 MLOAD DUP1 SWAP2 SUB SWAP1 RETURN JUMPDEST PUSH2 0x123 PUSH2 0x375 JUMP JUMPDEST PUSH1 0x40 MLOAD PUSH2 0x130 SWAP2 SWAP1 PUSH2 0x1214 JUMP JUMPDEST PUSH1 0x40 MLOAD DUP1 SWAP2 SUB SWAP1 RETURN JUMPDEST PUSH2 0x153 PUSH1 0x4 DUP1 CALLDATASIZE SUB PUSH2 0x14E SWAP2 SWAP1 DUP2 ADD SWAP1 PUSH2 0xF75 JUMP JUMPDEST PUSH2 0x3A2 JUMP JUMPDEST PUSH1 0x40 MLOAD PUSH2 0x160 SWAP2 SWAP1 PUSH2 0x127B JUMP JUMPDEST PUSH1 0x40 MLOAD DUP1 SWAP2 SUB SWAP1 RETURN JUMPDEST PUSH2 0x183 PUSH1 0x4 DUP1 CALLDATASIZE SUB PUSH2 0x17E SWAP2 SWAP1 DUP2 ADD SWAP1 PUSH2 0xF75 JUMP JUMPDEST PUSH2 0x3C9 JUMP JUMPDEST PUSH1 0x40 MLOAD PUSH2 0x190 SWAP2 SWAP1 PUSH2 0x127B JUMP JUMPDEST PUSH1 0x40 MLOAD DUP1 SWAP2 SUB SWAP1 RETURN JUMPDEST PUSH2 0x1B3 PUSH1 0x4 DUP1 CALLDATASIZE SUB PUSH2 0x1AE SWAP2 SWAP1 DUP2 ADD SWAP1 PUSH2 0xE6F JUMP JUMPDEST PUSH2 0x3F0 JUMP JUMPDEST STOP JUMPDEST PUSH2 0x1BD PUSH2 0x673 JUMP JUMPDEST PUSH1 0x40 MLOAD PUSH2 0x1CA SWAP2 SWAP1 PUSH2 0x131A JUMP JUMPDEST PUSH1 0x40 MLOAD DUP1 SWAP2 SUB SWAP1 RETURN JUMPDEST PUSH1 0x0 PUSH1 0x20 MSTORE DUP1 PUSH1 0x0 MSTORE PUSH1 0x40 PUSH1 0x0 KECCAK256 PUSH1 0x0 SWAP2 POP PUSH2 0x1ED PUSH2 0x9B5 JUMP JUMPDEST SWAP1 PUSH2 0x100 EXP SWAP1 DIV PUSH1 0xFF AND DUP2 JUMP JUMPDEST PUSH1 0x60 PUSH2 0x219 DUP5 GAS PUSH2 0x209 PUSH2 0xA18 JUMP JUMPDEST DUP6 PUSH1 0x3 PUSH2 0x214 PUSH2 0x9B5 JUMP JUMPDEST PUSH2 0x680 JUMP JUMPDEST SWAP1 POP PUSH2 0x22B DUP2 DUP4 PUSH4 0xFFFFFFFF AND PUSH2 0x720 JUMP JUMPDEST PUSH1 0x1 PUSH1 0x3 PUSH1 0x0 DUP3 DUP3 PUSH2 0x23B PUSH2 0x9B5 JUMP JUMPDEST ADD SWAP3 POP POP DUP2 SWAP1 PUSH2 0x249 PUSH2 0xA75 JUMP JUMPDEST POP POP POP PUSH1 0x1 PUSH1 0x2 PUSH1 0x0 DUP4 DUP1 MLOAD SWAP1 PUSH1 0x20 ADD KECCAK256 DUP2 MSTORE PUSH1 0x20 ADD SWAP1 DUP2 MSTORE PUSH1 0x20 ADD PUSH1 0x0 KECCAK256 PUSH1 0x0 PUSH2 0x100 EXP DUP2 PUSH2 0x277 PUSH2 0x9B5 JUMP JUMPDEST DUP2 PUSH1 0xFF MUL NOT AND SWAP1 DUP4 ISZERO ISZERO MUL OR SWAP1 PUSH2 0x28C PUSH2 0xA75 JUMP JUMPDEST POP POP POP POP POP POP POP JUMP JUMPDEST PUSH1 0x0 PUSH1 0x5 PUSH1 0x0 SWAP1 PUSH2 0x2A4 PUSH2 0x9B5 JUMP JUMPDEST SWAP1 PUSH2 0x100 EXP SWAP1 DIV PUSH20 0xFFFFFFFFFFFFFFFFFFFFFFFFFFFFFFFFFFFFFFFF AND PUSH20 0xFFFFFFFFFFFFFFFFFFFFFFFFFFFFFFFFFFFFFFFF AND PUSH4 0xBF40FAC1 DUP4 PUSH1 0x40 MLOAD DUP3 PUSH4 0xFFFFFFFF AND PUSH1 0xE0 SHL DUP2 MSTORE PUSH1 0x4 ADD PUSH2 0x2F9 SWAP2 SWAP1 PUSH2 0x12B8 JUMP JUMPDEST PUSH1 0x20 PUSH1 0x40 MLOAD DUP1 DUP4 SUB DUP2 DUP7 DUP1 PUSH2 0x30C PUSH2 0xADA JUMP JUMPDEST ISZERO DUP1 ISZERO PUSH2 0x321 JUMPI PUSH1 0x0 DUP1 PUSH2 0x31E PUSH2 0x947 JUMP JUMPDEST POP POP JUMPDEST POP GAS PUSH2 0x32B PUSH2 0xB3D JUMP JUMPDEST POP POP POP POP POP ISZERO DUP1 ISZERO PUSH2 0x34A JUMPI RETURNDATASIZE PUSH1 0x0 DUP1 RETURNDATACOPY RETURNDATASIZE PUSH1 0x0 PUSH2 0x347 PUSH2 0x947 JUMP JUMPDEST POP POP JUMPDEST POP POP POP POP PUSH1 0x40 MLOAD RETURNDATASIZE PUSH1 0x1F NOT PUSH1 0x1F DUP3 ADD AND DUP3 ADD DUP1 PUSH1 0x40 MSTORE POP PUSH2 0x36E SWAP2 SWAP1 DUP2 ADD SWAP1 PUSH2 0xE3D JUMP JUMPDEST SWAP1 POP SWAP2 SWAP1 POP JUMP JUMPDEST PUSH1 0x4 PUSH1 0x0 SWAP1 PUSH2 0x382 PUSH2 0x9B5 JUMP JUMPDEST SWAP1 PUSH2 0x100 EXP SWAP1 DIV PUSH20 0xFFFFFFFFFFFFFFFFFFFFFFFFFFFFFFFFFFFFFFFF AND DUP2 JUMP JUMPDEST PUSH1 0x2 PUSH1 0x20 MSTORE DUP1 PUSH1 0x0 MSTORE PUSH1 0x40 PUSH1 0x0 KECCAK256 PUSH1 0x0 SWAP2 POP PUSH2 0x3BC PUSH2 0x9B5 JUMP JUMPDEST SWAP1 PUSH2 0x100 EXP SWAP1 DIV PUSH1 0xFF AND DUP2 JUMP JUMPDEST PUSH1 0x1 PUSH1 0x20 MSTORE DUP1 PUSH1 0x0 MSTORE PUSH1 0x40 PUSH1 0x0 KECCAK256 PUSH1 0x0 SWAP2 POP PUSH2 0x3E3 PUSH2 0x9B5 JUMP JUMPDEST SWAP1 PUSH2 0x100 EXP SWAP1 DIV PUSH1 0xFF AND DUP2 JUMP JUMPDEST PUSH1 0x1 ISZERO ISZERO PUSH2 0x3FC PUSH2 0x7F2 JUMP JUMPDEST ISZERO ISZERO EQ PUSH2 0x447 JUMPI PUSH1 0x40 MLOAD PUSH32 0x8C379A000000000000000000000000000000000000000000000000000000000 DUP2 MSTORE PUSH1 0x4 ADD PUSH2 0x435 SWAP1 PUSH2 0x12FA JUMP JUMPDEST PUSH1 0x40 MLOAD DUP1 SWAP2 SUB SWAP1 PUSH2 0x444 PUSH2 0x947 JUMP JUMPDEST POP POP JUMPDEST PUSH1 0x60 PUSH2 0x455 DUP6 DUP6 DUP6 DUP6 PUSH2 0x680 JUMP JUMPDEST SWAP1 POP PUSH1 0x0 ISZERO ISZERO PUSH1 0x1 PUSH1 0x0 DUP4 DUP1 MLOAD SWAP1 PUSH1 0x20 ADD KECCAK256 DUP2 MSTORE PUSH1 0x20 ADD SWAP1 DUP2 MSTORE PUSH1 0x20 ADD PUSH1 0x0 KECCAK256 PUSH1 0x0 SWAP1 PUSH2 0x480 PUSH2 0x9B5 JUMP JUMPDEST SWAP1 PUSH2 0x100 EXP SWAP1 DIV PUSH1 0xFF AND ISZERO ISZERO EQ PUSH2 0x4D5 JUMPI PUSH1 0x40 MLOAD PUSH32 0x8C379A000000000000000000000000000000000000000000000000000000000 DUP2 MSTORE PUSH1 0x4 ADD PUSH2 0x4C3 SWAP1 PUSH2 0x12DA JUMP JUMPDEST PUSH1 0x40 MLOAD DUP1 SWAP2 SUB SWAP1 PUSH2 0x4D2 PUSH2 0x947 JUMP JUMPDEST POP POP JUMPDEST DUP4 PUSH1 0x4 PUSH1 0x0 PUSH2 0x100 EXP DUP2 PUSH2 0x4E7 PUSH2 0x9B5 JUMP JUMPDEST DUP2 PUSH20 0xFFFFFFFFFFFFFFFFFFFFFFFFFFFFFFFFFFFFFFFF MUL NOT AND SWAP1 DUP4 PUSH20 0xFFFFFFFFFFFFFFFFFFFFFFFFFFFFFFFFFFFFFFFF AND MUL OR SWAP1 PUSH2 0x523 PUSH2 0xA75 JUMP JUMPDEST POP POP POP PUSH1 0x0 DUP6 PUSH20 0xFFFFFFFFFFFFFFFFFFFFFFFFFFFFFFFFFFFFFFFF AND DUP5 PUSH1 0x40 MLOAD PUSH2 0x54D SWAP2 SWAP1 PUSH2 0x11C4 JUMP JUMPDEST PUSH1 0x0 PUSH1 0x40 MLOAD DUP1 DUP4 SUB DUP2 PUSH1 0x0 DUP7 GAS PUSH2 0x562 PUSH2 0xBF4 JUMP JUMPDEST POP POP POP POP POP POP SWAP2 POP POP RETURNDATASIZE DUP1 PUSH1 0x0 DUP2 EQ PUSH2 0x597 JUMPI PUSH1 0x40 MLOAD SWAP2 POP PUSH1 0x1F NOT PUSH1 0x3F RETURNDATASIZE ADD AND DUP3 ADD PUSH1 0x40 MSTORE RETURNDATASIZE DUP3 MSTORE RETURNDATASIZE PUSH1 0x0 PUSH1 0x20 DUP5 ADD RETURNDATACOPY PUSH2 0x59C JUMP JUMPDEST PUSH1 0x60 SWAP2 POP JUMPDEST POP POP SWAP1 POP PUSH1 0x1 ISZERO ISZERO DUP2 ISZERO ISZERO EQ ISZERO PUSH2 0x5F0 JUMPI PUSH1 0x1 DUP1 PUSH1 0x0 DUP5 DUP1 MLOAD SWAP1 PUSH1 0x20 ADD KECCAK256 DUP2 MSTORE PUSH1 0x20 ADD SWAP1 DUP2 MSTORE PUSH1 0x20 ADD PUSH1 0x0 KECCAK256 PUSH1 0x0 PUSH2 0x100 EXP DUP2 PUSH2 0x5D7 PUSH2 0x9B5 JUMP JUMPDEST DUP2 PUSH1 0xFF MUL NOT AND SWAP1 DUP4 ISZERO ISZERO MUL OR SWAP1 PUSH2 0x5EC PUSH2 0xA75 JUMP JUMPDEST POP POP POP JUMPDEST PUSH1 0x0 DUP3 GAS PUSH2 0x5FC PUSH2 0xA18 JUMP JUMPDEST GAS PUSH2 0x605 PUSH2 0xCAB JUMP JUMPDEST PUSH1 0x40 MLOAD PUSH1 0x20 ADD PUSH2 0x617 SWAP4 SWAP3 SWAP2 SWAP1 PUSH2 0x11DB JUMP JUMPDEST PUSH1 0x40 MLOAD PUSH1 0x20 DUP2 DUP4 SUB SUB DUP2 MSTORE SWAP1 PUSH1 0x40 MSTORE DUP1 MLOAD SWAP1 PUSH1 0x20 ADD KECCAK256 SWAP1 POP PUSH1 0x1 PUSH1 0x0 DUP1 DUP4 DUP2 MSTORE PUSH1 0x20 ADD SWAP1 DUP2 MSTORE PUSH1 0x20 ADD PUSH1 0x0 KECCAK256 PUSH1 0x0 PUSH2 0x100 EXP DUP2 PUSH2 0x652 PUSH2 0x9B5 JUMP JUMPDEST DUP2 PUSH1 0xFF MUL NOT AND SWAP1 DUP4 ISZERO ISZERO MUL OR SWAP1 PUSH2 0x667 PUSH2 0xA75 JUMP JUMPDEST POP POP POP POP POP POP POP POP POP POP JUMP JUMPDEST PUSH1 0x3 PUSH2 0x67D PUSH2 0x9B5 JUMP JUMPDEST DUP2 JUMP JUMPDEST PUSH1 0x60 DUP5 DUP5 DUP5 DUP5 PUSH1 0x40 MLOAD PUSH1 0x24 ADD PUSH2 0x699 SWAP5 SWAP4 SWAP3 SWAP2 SWAP1 PUSH2 0x122F JUMP JUMPDEST PUSH1 0x40 MLOAD PUSH1 0x20 DUP2 DUP4 SUB SUB DUP2 MSTORE SWAP1 PUSH1 0x40 MSTORE PUSH32 0xCBD4ECE900000000000000000000000000000000000000000000000000000000 PUSH28 0xFFFFFFFFFFFFFFFFFFFFFFFFFFFFFFFFFFFFFFFFFFFFFFFFFFFFFFFF NOT AND PUSH1 0x20 DUP3 ADD DUP1 MLOAD PUSH28 0xFFFFFFFFFFFFFFFFFFFFFFFFFFFFFFFFFFFFFFFFFFFFFFFFFFFFFFFF DUP4 DUP2 DUP4 AND OR DUP4 MSTORE POP POP POP POP SWAP1 POP SWAP5 SWAP4 POP POP POP POP JUMP JUMPDEST PUSH2 0x75E PUSH1 0x40 MLOAD DUP1 PUSH1 0x40 ADD PUSH1 0x40 MSTORE DUP1 PUSH1 0x17 DUP2 MSTORE PUSH1 0x20 ADD PUSH32 0x4F564D5F4C32546F4C314D657373616765506173736572000000000000000000 DUP2 MSTORE POP PUSH2 0x295 JUMP JUMPDEST PUSH20 0xFFFFFFFFFFFFFFFFFFFFFFFFFFFFFFFFFFFFFFFF AND PUSH4 0xCAFA81DC DUP4 PUSH1 0x40 MLOAD DUP3 PUSH4 0xFFFFFFFF AND PUSH1 0xE0 SHL DUP2 MSTORE PUSH1 0x4 ADD PUSH2 0x796 SWAP2 SWAP1 PUSH2 0x1296 JUMP JUMPDEST PUSH1 0x0 PUSH1 0x40 MLOAD DUP1 DUP4 SUB DUP2 PUSH1 0x0 DUP8 DUP1 PUSH2 0x7AB PUSH2 0xADA JUMP JUMPDEST ISZERO DUP1 ISZERO PUSH2 0x7C0 JUMPI PUSH1 0x0 DUP1 PUSH2 0x7BD PUSH2 0x947 JUMP JUMPDEST POP POP JUMPDEST POP GAS PUSH2 0x7CA PUSH2 0xBF4 JUMP JUMPDEST POP POP POP POP POP POP ISZERO DUP1 ISZERO PUSH2 0x7EA JUMPI RETURNDATASIZE PUSH1 0x0 DUP1 RETURNDATACOPY RETURNDATASIZE PUSH1 0x0 PUSH2 0x7E7 PUSH2 0x947 JUMP JUMPDEST POP POP JUMPDEST POP POP POP POP POP POP JUMP JUMPDEST PUSH1 0x0 PUSH2 0x832 PUSH1 0x40 MLOAD DUP1 PUSH1 0x40 ADD PUSH1 0x40 MSTORE DUP1 PUSH1 0x1A DUP2 MSTORE PUSH1 0x20 ADD PUSH32 0x4F564D5F4C3143726F7373446F6D61696E4D657373656E676572000000000000 DUP2 MSTORE POP PUSH2 0x295 JUMP JUMPDEST PUSH20 0xFFFFFFFFFFFFFFFFFFFFFFFFFFFFFFFFFFFFFFFF AND PUSH2 0x886 PUSH1 0x40 MLOAD DUP1 PUSH1 0x40 ADD PUSH1 0x40 MSTORE DUP1 PUSH1 0x13 DUP2 MSTORE PUSH1 0x20 ADD PUSH32 0x4F564D5F4C314D65737361676553656E64657200000000000000000000000000 DUP2 MSTORE POP PUSH2 0x295 JUMP JUMPDEST PUSH20 0xFFFFFFFFFFFFFFFFFFFFFFFFFFFFFFFFFFFFFFFF AND PUSH4 0xD2034106 PUSH1 0x40 MLOAD DUP2 PUSH4 0xFFFFFFFF AND PUSH1 0xE0 SHL DUP2 MSTORE PUSH1 0x4 ADD PUSH1 0x20 PUSH1 0x40 MLOAD DUP1 DUP4 SUB DUP2 PUSH1 0x0 DUP8 DUP1 PUSH2 0x8C8 PUSH2 0xADA JUMP JUMPDEST ISZERO DUP1 ISZERO PUSH2 0x8DD JUMPI PUSH1 0x0 DUP1 PUSH2 0x8DA PUSH2 0x947 JUMP JUMPDEST POP POP JUMPDEST POP GAS PUSH2 0x8E7 PUSH2 0xBF4 JUMP JUMPDEST POP POP POP POP POP POP ISZERO DUP1 ISZERO PUSH2 0x907 JUMPI RETURNDATASIZE PUSH1 0x0 DUP1 RETURNDATACOPY RETURNDATASIZE PUSH1 0x0 PUSH2 0x904 PUSH2 0x947 JUMP JUMPDEST POP POP JUMPDEST POP POP POP POP PUSH1 0x40 MLOAD RETURNDATASIZE PUSH1 0x1F NOT PUSH1 0x1F DUP3 ADD AND DUP3 ADD DUP1 PUSH1 0x40 MSTORE POP PUSH2 0x92B SWAP2 SWAP1 DUP2 ADD SWAP1 PUSH2 0xE3D JUMP JUMPDEST PUSH20 0xFFFFFFFFFFFFFFFFFFFFFFFFFFFFFFFFFFFFFFFF AND EQ SWAP1 POP SWAP1 JUMP JUMPDEST PUSH4 0x2A2A7ADB MSIZE DUP2 PUSH1 0xE0 SHL DUP2 MSTORE PUSH1 0x4 DUP2 ADD PUSH1 0x20 DUP2 MSTORE DUP6 PUSH1 0x20 DUP3 ADD MSTORE PUSH1 0x0 JUMPDEST DUP7 DUP2 LT ISZERO PUSH2 0x982 JUMPI DUP1 DUP7 ADD MLOAD DUP2 PUSH1 0x40 DUP5 ADD ADD MSTORE PUSH1 0x20 DUP2 ADD SWAP1 POP PUSH2 0x964 JUMP JUMPDEST POP PUSH1 0x20 DUP3 DUP8 PUSH1 0x64 ADD DUP5 CALLER PUSH1 0x0 SWAP1 GAS CALL PC PUSH1 0xE ADD JUMPI RETURNDATASIZE PUSH1 0x0 DUP1 RETURNDATACOPY RETURNDATASIZE PUSH1 0x0 REVERT JUMPDEST RETURNDATASIZE PUSH1 0x1 EQ ISZERO PC PUSH1 0xA ADD JUMPI PUSH1 0x1 PUSH1 0x0 RETURN JUMPDEST POP POP POP JUMP JUMPDEST PUSH4 0x3DAA959 MSIZE DUP2 PUSH1 0xE0 SHL DUP2 MSTORE DUP4 PUSH1 0x4 DUP3 ADD MSTORE PUSH1 0x20 DUP2 PUSH1 0x24 DUP4 CALLER PUSH1 0x0 SWAP1 GAS CALL PC PUSH1 0xE ADD JUMPI RETURNDATASIZE PUSH1 0x0 DUP1 RETURNDATACOPY RETURNDATASIZE PUSH1 0x0 REVERT JUMPDEST RETURNDATASIZE PUSH1 0x1 EQ ISZERO PC PUSH1 0xA ADD JUMPI PUSH1 0x1 PUSH1 0x0 RETURN JUMPDEST DUP1 MLOAD SWAP4 POP PUSH1 0x0 JUMPDEST PUSH1 0x40 DUP2 LT ISZERO PUSH2 0xA13 JUMPI PUSH1 0x0 DUP2 DUP4 ADD MSTORE PUSH1 0x20 DUP2 ADD SWAP1 POP PUSH2 0x9F9 JUMP JUMPDEST POP POP POP JUMP JUMPDEST PUSH4 0x73509064 MSIZE DUP2 PUSH1 0xE0 SHL DUP2 MSTORE PUSH1 0x20 DUP2 PUSH1 0x4 DUP4 CALLER PUSH1 0x0 SWAP1 GAS CALL PC PUSH1 0xE ADD JUMPI RETURNDATASIZE PUSH1 0x0 DUP1 RETURNDATACOPY RETURNDATASIZE PUSH1 0x0 REVERT JUMPDEST RETURNDATASIZE PUSH1 0x1 EQ ISZERO PC PUSH1 0xA ADD JUMPI PUSH1 0x1 PUSH1 0x0 RETURN JUMPDEST DUP1 MLOAD SWAP4 POP PUSH1 0x0 JUMPDEST PUSH1 0x40 DUP2 LT ISZERO PUSH2 0xA70 JUMPI PUSH1 0x0 DUP2 DUP4 ADD MSTORE PUSH1 0x20 DUP2 ADD SWAP1 POP PUSH2 0xA56 JUMP JUMPDEST POP POP POP JUMP JUMPDEST PUSH4 0x22BD64C0 MSIZE DUP2 PUSH1 0xE0 SHL DUP2 MSTORE DUP4 PUSH1 0x4 DUP3 ADD MSTORE DUP5 PUSH1 0x24 DUP3 ADD MSTORE PUSH1 0x0 DUP2 PUSH1 0x44 DUP4 CALLER PUSH1 0x0 SWAP1 GAS CALL PC PUSH1 0xE ADD JUMPI RETURNDATASIZE PUSH1 0x0 DUP1 RETURNDATACOPY RETURNDATASIZE PUSH1 0x0 REVERT JUMPDEST RETURNDATASIZE PUSH1 0x1 EQ ISZERO PC PUSH1 0xA ADD JUMPI PUSH1 0x1 PUSH1 0x0 RETURN JUMPDEST PUSH1 0x0 JUMPDEST PUSH1 0x40 DUP2 LT ISZERO PUSH2 0xAD5 JUMPI PUSH1 0x0 DUP2 DUP4 ADD MSTORE PUSH1 0x20 DUP2 ADD SWAP1 POP PUSH2 0xABB JUMP JUMPDEST POP POP POP JUMP JUMPDEST PUSH4 0x8435035B MSIZE DUP2 PUSH1 0xE0 SHL DUP2 MSTORE DUP4 PUSH1 0x4 DUP3 ADD MSTORE PUSH1 0x20 DUP2 PUSH1 0x24 DUP4 CALLER PUSH1 0x0 SWAP1 GAS CALL PC PUSH1 0xE ADD JUMPI RETURNDATASIZE PUSH1 0x0 DUP1 RETURNDATACOPY RETURNDATASIZE PUSH1 0x0 REVERT JUMPDEST RETURNDATASIZE PUSH1 0x1 EQ ISZERO PC PUSH1 0xA ADD JUMPI PUSH1 0x1 PUSH1 0x0 RETURN JUMPDEST DUP1 MLOAD SWAP4 POP PUSH1 0x0 JUMPDEST PUSH1 0x40 DUP2 LT ISZERO PUSH2 0xB38 JUMPI PUSH1 0x0 DUP2 DUP4 ADD MSTORE PUSH1 0x20 DUP2 ADD SWAP1 POP PUSH2 0xB1E JUMP JUMPDEST POP POP POP JUMP JUMPDEST PUSH4 0x8540661F MSIZE DUP2 PUSH1 0xE0 SHL DUP2 MSTORE DUP4 PUSH1 0x4 DUP3 ADD MSTORE DUP5 PUSH1 0x24 DUP3 ADD MSTORE PUSH1 0x60 PUSH1 0x44 DUP3 ADD MSTORE DUP7 PUSH1 0x64 DUP3 ADD MSTORE PUSH1 0x84 DUP2 ADD PUSH1 0x0 JUMPDEST DUP9 DUP2 LT ISZERO PUSH2 0xB84 JUMPI DUP1 DUP9 ADD MLOAD DUP2 DUP4 ADD MSTORE PUSH1 0x20 DUP2 ADD SWAP1 POP PUSH2 0xB69 JUMP JUMPDEST POP PUSH1 0x60 DUP3 DUP10 PUSH1 0xA4 ADD DUP5 CALLER PUSH1 0x0 SWAP1 GAS CALL PC PUSH1 0xE ADD JUMPI RETURNDATASIZE PUSH1 0x0 DUP1 RETURNDATACOPY RETURNDATASIZE PUSH1 0x0 REVERT JUMPDEST RETURNDATASIZE PUSH1 0x1 EQ ISZERO PC PUSH1 0xA ADD JUMPI PUSH1 0x1 PUSH1 0x0 RETURN JUMPDEST DUP2 MLOAD PUSH1 0x40 DUP4 ADD MLOAD RETURNDATASIZE PUSH1 0x0 DUP6 RETURNDATACOPY DUP12 DUP12 DUP3 PUSH1 0x60 DUP8 ADD CALLER POP PUSH1 0x0 PUSH1 0x4 GAS CALL POP MSIZE DUP5 JUMPDEST DUP2 DUP2 LT ISZERO PUSH2 0xBE8 JUMPI PUSH1 0x0 DUP2 MSTORE PUSH1 0x20 DUP2 ADD SWAP1 POP PUSH2 0xBD1 JUMP JUMPDEST POP DUP3 SWAP13 POP POP POP POP POP POP POP JUMP JUMPDEST PUSH4 0x85979F76 MSIZE DUP2 PUSH1 0xE0 SHL DUP2 MSTORE DUP4 PUSH1 0x4 DUP3 ADD MSTORE DUP5 PUSH1 0x24 DUP3 ADD MSTORE PUSH1 0x60 PUSH1 0x44 DUP3 ADD MSTORE DUP8 PUSH1 0x64 DUP3 ADD MSTORE PUSH1 0x84 DUP2 ADD PUSH1 0x0 JUMPDEST DUP10 DUP2 LT ISZERO PUSH2 0xC3B JUMPI DUP1 DUP10 ADD MLOAD DUP2 DUP4 ADD MSTORE PUSH1 0x20 DUP2 ADD SWAP1 POP PUSH2 0xC20 JUMP JUMPDEST POP PUSH1 0x60 DUP3 DUP11 PUSH1 0xA4 ADD DUP5 CALLER PUSH1 0x0 SWAP1 GAS CALL PC PUSH1 0xE ADD JUMPI RETURNDATASIZE PUSH1 0x0 DUP1 RETURNDATACOPY RETURNDATASIZE PUSH1 0x0 REVERT JUMPDEST RETURNDATASIZE PUSH1 0x1 EQ ISZERO PC PUSH1 0xA ADD JUMPI PUSH1 0x1 PUSH1 0x0 RETURN JUMPDEST DUP2 MLOAD PUSH1 0x40 DUP4 ADD MLOAD RETURNDATASIZE PUSH1 0x0 DUP6 RETURNDATACOPY DUP13 DUP13 DUP3 PUSH1 0x60 DUP8 ADD CALLER POP PUSH1 0x0 PUSH1 0x4 GAS CALL POP MSIZE DUP5 JUMPDEST DUP2 DUP2 LT ISZERO PUSH2 0xC9F JUMPI PUSH1 0x0 DUP2 MSTORE PUSH1 0x20 DUP2 ADD SWAP1 POP PUSH2 0xC88 JUMP JUMPDEST POP DUP3 SWAP14 POP POP POP POP POP POP POP JUMP JUMPDEST PUSH4 0x5A98C361 MSIZE DUP2 PUSH1 0xE0 SHL DUP2 MSTORE PUSH1 0x20 DUP2 PUSH1 0x4 DUP4 CALLER PUSH1 0x0 SWAP1 GAS CALL PC PUSH1 0xE ADD JUMPI RETURNDATASIZE PUSH1 0x0 DUP1 RETURNDATACOPY RETURNDATASIZE PUSH1 0x0 REVERT JUMPDEST RETURNDATASIZE PUSH1 0x1 EQ ISZERO PC PUSH1 0xA ADD JUMPI PUSH1 0x1 PUSH1 0x0 RETURN JUMPDEST DUP1 MLOAD SWAP4 POP PUSH1 0x0 JUMPDEST PUSH1 0x40 DUP2 LT ISZERO PUSH2 0xD03 JUMPI PUSH1 0x0 DUP2 DUP4 ADD MSTORE PUSH1 0x20 DUP2 ADD SWAP1 POP PUSH2 0xCE9 JUMP JUMPDEST POP POP POP JUMP JUMPDEST PUSH1 0x0 DUP2 CALLDATALOAD SWAP1 POP PUSH2 0xD17 DUP2 PUSH2 0x151A JUMP JUMPDEST SWAP3 SWAP2 POP POP JUMP JUMPDEST PUSH1 0x0 DUP2 MLOAD SWAP1 POP PUSH2 0xD2C DUP2 PUSH2 0x151A JUMP JUMPDEST SWAP3 SWAP2 POP POP JUMP JUMPDEST PUSH1 0x0 DUP2 CALLDATALOAD SWAP1 POP PUSH2 0xD41 DUP2 PUSH2 0x153A JUMP JUMPDEST SWAP3 SWAP2 POP POP JUMP JUMPDEST PUSH1 0x0 DUP3 PUSH1 0x1F DUP4 ADD SLT PUSH2 0xD61 JUMPI PUSH1 0x0 DUP1 PUSH2 0xD5E PUSH2 0x947 JUMP JUMPDEST POP POP JUMPDEST DUP2 CALLDATALOAD PUSH2 0xD74 PUSH2 0xD6F DUP3 PUSH2 0x136B JUMP JUMPDEST PUSH2 0x1335 JUMP JUMPDEST SWAP2 POP DUP1 DUP3 MSTORE PUSH1 0x20 DUP4 ADD PUSH1 0x20 DUP4 ADD DUP6 DUP4 DUP4 ADD GT ISZERO PUSH2 0xD99 JUMPI PUSH1 0x0 DUP1 PUSH2 0xD96 PUSH2 0x947 JUMP JUMPDEST POP POP JUMPDEST PUSH2 0xDA4 DUP4 DUP3 DUP5 PUSH2 0x148C JUMP JUMPDEST POP POP POP SWAP3 SWAP2 POP POP JUMP JUMPDEST PUSH1 0x0 DUP3 PUSH1 0x1F DUP4 ADD SLT PUSH2 0xDC7 JUMPI PUSH1 0x0 DUP1 PUSH2 0xDC4 PUSH2 0x947 JUMP JUMPDEST POP POP JUMPDEST DUP2 CALLDATALOAD PUSH2 0xDDA PUSH2 0xDD5 DUP3 PUSH2 0x13A0 JUMP JUMPDEST PUSH2 0x1335 JUMP JUMPDEST SWAP2 POP DUP1 DUP3 MSTORE PUSH1 0x20 DUP4 ADD PUSH1 0x20 DUP4 ADD DUP6 DUP4 DUP4 ADD GT ISZERO PUSH2 0xDFF JUMPI PUSH1 0x0 DUP1 PUSH2 0xDFC PUSH2 0x947 JUMP JUMPDEST POP POP JUMPDEST PUSH2 0xE0A DUP4 DUP3 DUP5 PUSH2 0x148C JUMP JUMPDEST POP POP POP SWAP3 SWAP2 POP POP JUMP JUMPDEST PUSH1 0x0 DUP2 CALLDATALOAD SWAP1 POP PUSH2 0xE22 DUP2 PUSH2 0x155A JUMP JUMPDEST SWAP3 SWAP2 POP POP JUMP JUMPDEST PUSH1 0x0 DUP2 CALLDATALOAD SWAP1 POP PUSH2 0xE37 DUP2 PUSH2 0x157A JUMP JUMPDEST SWAP3 SWAP2 POP POP JUMP JUMPDEST PUSH1 0x0 PUSH1 0x20 DUP3 DUP5 SUB SLT ISZERO PUSH2 0xE58 JUMPI PUSH1 0x0 DUP1 PUSH2 0xE55 PUSH2 0x947 JUMP JUMPDEST POP POP JUMPDEST PUSH1 0x0 PUSH2 0xE66 DUP5 DUP3 DUP6 ADD PUSH2 0xD1D JUMP JUMPDEST SWAP2 POP POP SWAP3 SWAP2 POP POP JUMP JUMPDEST PUSH1 0x0 DUP1 PUSH1 0x0 DUP1 PUSH1 0x80 DUP6 DUP8 SUB SLT ISZERO PUSH2 0xE8E JUMPI PUSH1 0x0 DUP1 PUSH2 0xE8B PUSH2 0x947 JUMP JUMPDEST POP POP JUMPDEST PUSH1 0x0 PUSH2 0xE9C DUP8 DUP3 DUP9 ADD PUSH2 0xD08 JUMP JUMPDEST SWAP5 POP POP PUSH1 0x20 PUSH2 0xEAD DUP8 DUP3 DUP9 ADD PUSH2 0xD08 JUMP JUMPDEST SWAP4 POP POP PUSH1 0x40 DUP6 ADD CALLDATALOAD PUSH8 0xFFFFFFFFFFFFFFFF DUP2 GT ISZERO PUSH2 0xED3 JUMPI PUSH1 0x0 DUP1 PUSH2 0xED0 PUSH2 0x947 JUMP JUMPDEST POP POP JUMPDEST PUSH2 0xEDF DUP8 DUP3 DUP9 ADD PUSH2 0xD47 JUMP JUMPDEST SWAP3 POP POP PUSH1 0x60 PUSH2 0xEF0 DUP8 DUP3 DUP9 ADD PUSH2 0xE13 JUMP JUMPDEST SWAP2 POP POP SWAP3 SWAP6 SWAP2 SWAP5 POP SWAP3 POP JUMP JUMPDEST PUSH1 0x0 DUP1 PUSH1 0x0 PUSH1 0x60 DUP5 DUP7 SUB SLT ISZERO PUSH2 0xF1A JUMPI PUSH1 0x0 DUP1 PUSH2 0xF17 PUSH2 0x947 JUMP JUMPDEST POP POP JUMPDEST PUSH1 0x0 PUSH2 0xF28 DUP7 DUP3 DUP8 ADD PUSH2 0xD08 JUMP JUMPDEST SWAP4 POP POP PUSH1 0x20 DUP5 ADD CALLDATALOAD PUSH8 0xFFFFFFFFFFFFFFFF DUP2 GT ISZERO PUSH2 0xF4E JUMPI PUSH1 0x0 DUP1 PUSH2 0xF4B PUSH2 0x947 JUMP JUMPDEST POP POP JUMPDEST PUSH2 0xF5A DUP7 DUP3 DUP8 ADD PUSH2 0xD47 JUMP JUMPDEST SWAP3 POP POP PUSH1 0x40 PUSH2 0xF6B DUP7 DUP3 DUP8 ADD PUSH2 0xE28 JUMP JUMPDEST SWAP2 POP POP SWAP3 POP SWAP3 POP SWAP3 JUMP JUMPDEST PUSH1 0x0 PUSH1 0x20 DUP3 DUP5 SUB SLT ISZERO PUSH2 0xF90 JUMPI PUSH1 0x0 DUP1 PUSH2 0xF8D PUSH2 0x947 JUMP JUMPDEST POP POP JUMPDEST PUSH1 0x0 PUSH2 0xF9E DUP5 DUP3 DUP6 ADD PUSH2 0xD32 JUMP JUMPDEST SWAP2 POP POP SWAP3 SWAP2 POP POP JUMP JUMPDEST PUSH1 0x0 PUSH1 0x20 DUP3 DUP5 SUB SLT ISZERO PUSH2 0xFC2 JUMPI PUSH1 0x0 DUP1 PUSH2 0xFBF PUSH2 0x947 JUMP JUMPDEST POP POP JUMPDEST PUSH1 0x0 DUP3 ADD CALLDATALOAD PUSH8 0xFFFFFFFFFFFFFFFF DUP2 GT ISZERO PUSH2 0xFE5 JUMPI PUSH1 0x0 DUP1 PUSH2 0xFE2 PUSH2 0x947 JUMP JUMPDEST POP POP JUMPDEST PUSH2 0xFF1 DUP5 DUP3 DUP6 ADD PUSH2 0xDAD JUMP JUMPDEST SWAP2 POP POP SWAP3 SWAP2 POP POP JUMP JUMPDEST PUSH2 0x100B PUSH2 0x1006 DUP3 PUSH2 0x142A JUMP JUMPDEST PUSH2 0x14CE JUMP JUMPDEST DUP3 MSTORE POP POP JUMP JUMPDEST PUSH2 0x101A DUP2 PUSH2 0x1418 JUMP JUMPDEST DUP3 MSTORE POP POP JUMP JUMPDEST PUSH2 0x1029 DUP2 PUSH2 0x143C JUMP JUMPDEST DUP3 MSTORE POP POP JUMP JUMPDEST PUSH1 0x0 PUSH2 0x103A DUP3 PUSH2 0x13D5 JUMP JUMPDEST PUSH2 0x1044 DUP2 DUP6 PUSH2 0x13EB JUMP JUMPDEST SWAP4 POP PUSH2 0x1054 DUP2 DUP6 PUSH1 0x20 DUP7 ADD PUSH2 0x149B JUMP JUMPDEST PUSH2 0x105D DUP2 PUSH2 0x14FC JUMP JUMPDEST DUP5 ADD SWAP2 POP POP SWAP3 SWAP2 POP POP JUMP JUMPDEST PUSH1 0x0 PUSH2 0x1073 DUP3 PUSH2 0x13D5 JUMP JUMPDEST PUSH2 0x107D DUP2 DUP6 PUSH2 0x13FC JUMP JUMPDEST SWAP4 POP PUSH2 0x108D DUP2 DUP6 PUSH1 0x20 DUP7 ADD PUSH2 0x149B JUMP JUMPDEST DUP1 DUP5 ADD SWAP2 POP POP SWAP3 SWAP2 POP POP JUMP JUMPDEST PUSH1 0x0 PUSH2 0x10A4 DUP3 PUSH2 0x13E0 JUMP JUMPDEST PUSH2 0x10AE DUP2 DUP6 PUSH2 0x1407 JUMP JUMPDEST SWAP4 POP PUSH2 0x10BE DUP2 DUP6 PUSH1 0x20 DUP7 ADD PUSH2 0x149B JUMP JUMPDEST PUSH2 0x10C7 DUP2 PUSH2 0x14FC JUMP JUMPDEST DUP5 ADD SWAP2 POP POP SWAP3 SWAP2 POP POP JUMP JUMPDEST PUSH1 0x0 PUSH2 0x10DF PUSH1 0x2B DUP4 PUSH2 0x1407 JUMP JUMPDEST SWAP2 POP PUSH32 0x50726F7669646564206D6573736167652068617320616C726561647920626565 PUSH1 0x0 DUP4 ADD MSTORE PUSH32 0x6E2072656365697665642E000000000000000000000000000000000000000000 PUSH1 0x20 DUP4 ADD MSTORE PUSH1 0x40 DUP3 ADD SWAP1 POP SWAP2 SWAP1 POP JUMP JUMPDEST PUSH1 0x0 PUSH2 0x1145 PUSH1 0x27 DUP4 PUSH2 0x1407 JUMP JUMPDEST SWAP2 POP PUSH32 0x50726F7669646564206D65737361676520636F756C64206E6F74206265207665 PUSH1 0x0 DUP4 ADD MSTORE PUSH32 0x7269666965642E00000000000000000000000000000000000000000000000000 PUSH1 0x20 DUP4 ADD MSTORE PUSH1 0x40 DUP3 ADD SWAP1 POP SWAP2 SWAP1 POP JUMP JUMPDEST PUSH2 0x11A7 DUP2 PUSH2 0x1472 JUMP JUMPDEST DUP3 MSTORE POP POP JUMP JUMPDEST PUSH2 0x11BE PUSH2 0x11B9 DUP3 PUSH2 0x1472 JUMP JUMPDEST PUSH2 0x14F2 JUMP JUMPDEST DUP3 MSTORE POP POP JUMP JUMPDEST PUSH1 0x0 PUSH2 0x11D0 DUP3 DUP5 PUSH2 0x1068 JUMP JUMPDEST SWAP2 POP DUP2 SWAP1 POP SWAP3 SWAP2 POP POP JUMP JUMPDEST PUSH1 0x0 PUSH2 0x11E7 DUP3 DUP7 PUSH2 0x1068 JUMP JUMPDEST SWAP2 POP PUSH2 0x11F3 DUP3 DUP6 PUSH2 0xFFA JUMP JUMPDEST PUSH1 0x14 DUP3 ADD SWAP2 POP PUSH2 0x1203 DUP3 DUP5 PUSH2 0x11AD JUMP JUMPDEST PUSH1 0x20 DUP3 ADD SWAP2 POP DUP2 SWAP1 POP SWAP5 SWAP4 POP POP POP POP JUMP JUMPDEST PUSH1 0x0 PUSH1 0x20 DUP3 ADD SWAP1 POP PUSH2 0x1229 PUSH1 0x0 DUP4 ADD DUP5 PUSH2 0x1011 JUMP JUMPDEST SWAP3 SWAP2 POP POP JUMP JUMPDEST PUSH1 0x0 PUSH1 0x80 DUP3 ADD SWAP1 POP PUSH2 0x1244 PUSH1 0x0 DUP4 ADD DUP8 PUSH2 0x1011 JUMP JUMPDEST PUSH2 0x1251 PUSH1 0x20 DUP4 ADD DUP7 PUSH2 0x1011 JUMP JUMPDEST DUP2 DUP2 SUB PUSH1 0x40 DUP4 ADD MSTORE PUSH2 0x1263 DUP2 DUP6 PUSH2 0x102F JUMP JUMPDEST SWAP1 POP PUSH2 0x1272 PUSH1 0x60 DUP4 ADD DUP5 PUSH2 0x119E JUMP JUMPDEST SWAP6 SWAP5 POP POP POP POP POP JUMP JUMPDEST PUSH1 0x0 PUSH1 0x20 DUP3 ADD SWAP1 POP PUSH2 0x1290 PUSH1 0x0 DUP4 ADD DUP5 PUSH2 0x1020 JUMP JUMPDEST SWAP3 SWAP2 POP POP JUMP JUMPDEST PUSH1 0x0 PUSH1 0x20 DUP3 ADD SWAP1 POP DUP2 DUP2 SUB PUSH1 0x0 DUP4 ADD MSTORE PUSH2 0x12B0 DUP2 DUP5 PUSH2 0x102F JUMP JUMPDEST SWAP1 POP SWAP3 SWAP2 POP POP JUMP JUMPDEST PUSH1 0x0 PUSH1 0x20 DUP3 ADD SWAP1 POP DUP2 DUP2 SUB PUSH1 0x0 DUP4 ADD MSTORE PUSH2 0x12D2 DUP2 DUP5 PUSH2 0x1099 JUMP JUMPDEST SWAP1 POP SWAP3 SWAP2 POP POP JUMP JUMPDEST PUSH1 0x0 PUSH1 0x20 DUP3 ADD SWAP1 POP DUP2 DUP2 SUB PUSH1 0x0 DUP4 ADD MSTORE PUSH2 0x12F3 DUP2 PUSH2 0x10D2 JUMP JUMPDEST SWAP1 POP SWAP2 SWAP1 POP JUMP JUMPDEST PUSH1 0x0 PUSH1 0x20 DUP3 ADD SWAP1 POP DUP2 DUP2 SUB PUSH1 0x0 DUP4 ADD MSTORE PUSH2 0x1313 DUP2 PUSH2 0x1138 JUMP JUMPDEST SWAP1 POP SWAP2 SWAP1 POP JUMP JUMPDEST PUSH1 0x0 PUSH1 0x20 DUP3 ADD SWAP1 POP PUSH2 0x132F PUSH1 0x0 DUP4 ADD DUP5 PUSH2 0x119E JUMP JUMPDEST SWAP3 SWAP2 POP POP JUMP JUMPDEST PUSH1 0x0 PUSH1 0x40 MLOAD SWAP1 POP DUP2 DUP2 ADD DUP2 DUP2 LT PUSH8 0xFFFFFFFFFFFFFFFF DUP3 GT OR ISZERO PUSH2 0x1361 JUMPI PUSH1 0x0 DUP1 PUSH2 0x135E PUSH2 0x947 JUMP JUMPDEST POP POP JUMPDEST DUP1 PUSH1 0x40 MSTORE POP SWAP2 SWAP1 POP JUMP JUMPDEST PUSH1 0x0 PUSH8 0xFFFFFFFFFFFFFFFF DUP3 GT ISZERO PUSH2 0x138B JUMPI PUSH1 0x0 DUP1 PUSH2 0x1388 PUSH2 0x947 JUMP JUMPDEST POP POP JUMPDEST PUSH1 0x1F NOT PUSH1 0x1F DUP4 ADD AND SWAP1 POP PUSH1 0x20 DUP2 ADD SWAP1 POP SWAP2 SWAP1 POP JUMP JUMPDEST PUSH1 0x0 PUSH8 0xFFFFFFFFFFFFFFFF DUP3 GT ISZERO PUSH2 0x13C0 JUMPI PUSH1 0x0 DUP1 PUSH2 0x13BD PUSH2 0x947 JUMP JUMPDEST POP POP JUMPDEST PUSH1 0x1F NOT PUSH1 0x1F DUP4 ADD AND SWAP1 POP PUSH1 0x20 DUP2 ADD SWAP1 POP SWAP2 SWAP1 POP JUMP JUMPDEST PUSH1 0x0 DUP2 MLOAD SWAP1 POP SWAP2 SWAP1 POP JUMP JUMPDEST PUSH1 0x0 DUP2 MLOAD SWAP1 POP SWAP2 SWAP1 POP JUMP JUMPDEST PUSH1 0x0 DUP3 DUP3 MSTORE PUSH1 0x20 DUP3 ADD SWAP1 POP SWAP3 SWAP2 POP POP JUMP JUMPDEST PUSH1 0x0 DUP2 SWAP1 POP SWAP3 SWAP2 POP POP JUMP JUMPDEST PUSH1 0x0 DUP3 DUP3 MSTORE PUSH1 0x20 DUP3 ADD SWAP1 POP SWAP3 SWAP2 POP POP JUMP JUMPDEST PUSH1 0x0 PUSH2 0x1423 DUP3 PUSH2 0x1452 JUMP JUMPDEST SWAP1 POP SWAP2 SWAP1 POP JUMP JUMPDEST PUSH1 0x0 PUSH2 0x1435 DUP3 PUSH2 0x1452 JUMP JUMPDEST SWAP1 POP SWAP2 SWAP1 POP JUMP JUMPDEST PUSH1 0x0 DUP2 ISZERO ISZERO SWAP1 POP SWAP2 SWAP1 POP JUMP JUMPDEST PUSH1 0x0 DUP2 SWAP1 POP SWAP2 SWAP1 POP JUMP JUMPDEST PUSH1 0x0 PUSH20 0xFFFFFFFFFFFFFFFFFFFFFFFFFFFFFFFFFFFFFFFF DUP3 AND SWAP1 POP SWAP2 SWAP1 POP JUMP JUMPDEST PUSH1 0x0 DUP2 SWAP1 POP SWAP2 SWAP1 POP JUMP JUMPDEST PUSH1 0x0 PUSH4 0xFFFFFFFF DUP3 AND SWAP1 POP SWAP2 SWAP1 POP JUMP JUMPDEST DUP3 DUP2 DUP4 CALLDATACOPY PUSH1 0x0 DUP4 DUP4 ADD MSTORE POP POP POP JUMP JUMPDEST PUSH1 0x0 JUMPDEST DUP4 DUP2 LT ISZERO PUSH2 0x14B9 JUMPI DUP1 DUP3 ADD MLOAD DUP2 DUP5 ADD MSTORE PUSH1 0x20 DUP2 ADD SWAP1 POP PUSH2 0x149E JUMP JUMPDEST DUP4 DUP2 GT ISZERO PUSH2 0x14C8 JUMPI PUSH1 0x0 DUP5 DUP5 ADD MSTORE JUMPDEST POP POP POP POP JUMP JUMPDEST PUSH1 0x0 PUSH2 0x14D9 DUP3 PUSH2 0x14E0 JUMP JUMPDEST SWAP1 POP SWAP2 SWAP1 POP JUMP JUMPDEST PUSH1 0x0 PUSH2 0x14EB DUP3 PUSH2 0x150D JUMP JUMPDEST SWAP1 POP SWAP2 SWAP1 POP JUMP JUMPDEST PUSH1 0x0 DUP2 SWAP1 POP SWAP2 SWAP1 POP JUMP JUMPDEST PUSH1 0x0 PUSH1 0x1F NOT PUSH1 0x1F DUP4 ADD AND SWAP1 POP SWAP2 SWAP1 POP JUMP JUMPDEST PUSH1 0x0 DUP2 PUSH1 0x60 SHL SWAP1 POP SWAP2 SWAP1 POP JUMP JUMPDEST PUSH2 0x1523 DUP2 PUSH2 0x1418 JUMP JUMPDEST DUP2 EQ PUSH2 0x1537 JUMPI PUSH1 0x0 DUP1 PUSH2 0x1534 PUSH2 0x947 JUMP JUMPDEST POP POP JUMPDEST POP JUMP JUMPDEST PUSH2 0x1543 DUP2 PUSH2 0x1448 JUMP JUMPDEST DUP2 EQ PUSH2 0x1557 JUMPI PUSH1 0x0 DUP1 PUSH2 0x1554 PUSH2 0x947 JUMP JUMPDEST POP POP JUMPDEST POP JUMP JUMPDEST PUSH2 0x1563 DUP2 PUSH2 0x1472 JUMP JUMPDEST DUP2 EQ PUSH2 0x1577 JUMPI PUSH1 0x0 DUP1 PUSH2 0x1574 PUSH2 0x947 JUMP JUMPDEST POP POP JUMPDEST POP JUMP JUMPDEST PUSH2 0x1583 DUP2 PUSH2 0x147C JUMP JUMPDEST DUP2 EQ PUSH2 0x1597 JUMPI PUSH1 0x0 DUP1 PUSH2 0x1594 PUSH2 0x947 JUMP JUMPDEST POP POP JUMPDEST POP JUMP "
    },
    "deployedBytecode": {
      "linkReferences": {},
      "object": "608060405234801561001957600080610016610947565b50505b50600436106100915760003560e01c806382e3702d1161006457806382e3702d14610139578063b1b1b20914610169578063cbd4ece914610199578063ecc70428146101b557610091565b806321d800ec1461009f5780633dbb202b146100cf578063461a4478146100eb5780636e296e451461011b575b60008061009c610947565b50505b6100b960048036036100b49190810190610f75565b6101d3565b6040516100c6919061127b565b60405180910390f35b6100e960048036036100e49190810190610efc565b6101fa565b005b61010560048036036101009190810190610fa7565b610295565b6040516101129190611214565b60405180910390f35b610123610375565b6040516101309190611214565b60405180910390f35b610153600480360361014e9190810190610f75565b6103a2565b604051610160919061127b565b60405180910390f35b610183600480360361017e9190810190610f75565b6103c9565b604051610190919061127b565b60405180910390f35b6101b360048036036101ae9190810190610e6f565b6103f0565b005b6101bd610673565b6040516101ca919061131a565b60405180910390f35b6000602052806000526040600020600091506101ed6109b5565b906101000a900460ff1681565b6060610219845a610209610a18565b8560036102146109b5565b610680565b905061022b818363ffffffff16610720565b600160036000828261023b6109b5565b019250508190610249610a75565b5050506001600260008380519060200120815260200190815260200160002060006101000a816102776109b5565b8160ff0219169083151502179061028c610a75565b50505050505050565b600060056000906102a46109b5565b906101000a900473ffffffffffffffffffffffffffffffffffffffff1673ffffffffffffffffffffffffffffffffffffffff1663bf40fac1836040518263ffffffff1660e01b81526004016102f991906112b8565b602060405180830381868061030c610ada565b1580156103215760008061031e610947565b50505b505a61032b610b3d565b505050505015801561034a573d6000803e3d6000610347610947565b50505b505050506040513d601f19601f8201168201806040525061036e9190810190610e3d565b9050919050565b60046000906103826109b5565b906101000a900473ffffffffffffffffffffffffffffffffffffffff1681565b6002602052806000526040600020600091506103bc6109b5565b906101000a900460ff1681565b6001602052806000526040600020600091506103e36109b5565b906101000a900460ff1681565b600115156103fc6107f2565b151514610447576040517f08c379a0000000000000000000000000000000000000000000000000000000008152600401610435906112fa565b60405180910390610444610947565b50505b606061045585858585610680565b90506000151560016000838051906020012081526020019081526020016000206000906104806109b5565b906101000a900460ff161515146104d5576040517f08c379a00000000000000000000000000000000000000000000000000000000081526004016104c3906112da565b604051809103906104d2610947565b50505b83600460006101000a816104e76109b5565b8173ffffffffffffffffffffffffffffffffffffffff021916908373ffffffffffffffffffffffffffffffffffffffff16021790610523610a75565b50505060008573ffffffffffffffffffffffffffffffffffffffff168460405161054d91906111c4565b6000604051808303816000865a610562610bf4565b5050505050509150503d8060008114610597576040519150601f19603f3d011682016040523d82523d6000602084013e61059c565b606091505b505090506001151581151514156105f05760018060008480519060200120815260200190815260200160002060006101000a816105d76109b5565b8160ff021916908315150217906105ec610a75565b5050505b6000825a6105fc610a18565b5a610605610cab565b604051602001610617939291906111db565b604051602081830303815290604052805190602001209050600160008083815260200190815260200160002060006101000a816106526109b5565b8160ff02191690831515021790610667610a75565b50505050505050505050565b600361067d6109b5565b81565b606084848484604051602401610699949392919061122f565b6040516020818303038152906040527fcbd4ece9000000000000000000000000000000000000000000000000000000007bffffffffffffffffffffffffffffffffffffffffffffffffffffffff19166020820180517bffffffffffffffffffffffffffffffffffffffffffffffffffffffff83818316178352505050509050949350505050565b61075e6040518060400160405280601781526020017f4f564d5f4c32546f4c314d657373616765506173736572000000000000000000815250610295565b73ffffffffffffffffffffffffffffffffffffffff1663cafa81dc836040518263ffffffff1660e01b81526004016107969190611296565b600060405180830381600087806107ab610ada565b1580156107c0576000806107bd610947565b50505b505a6107ca610bf4565b5050505050501580156107ea573d6000803e3d60006107e7610947565b50505b505050505050565b60006108326040518060400160405280601a81526020017f4f564d5f4c3143726f7373446f6d61696e4d657373656e676572000000000000815250610295565b73ffffffffffffffffffffffffffffffffffffffff166108866040518060400160405280601381526020017f4f564d5f4c314d65737361676553656e64657200000000000000000000000000815250610295565b73ffffffffffffffffffffffffffffffffffffffff1663d20341066040518163ffffffff1660e01b8152600401602060405180830381600087806108c8610ada565b1580156108dd576000806108da610947565b50505b505a6108e7610bf4565b505050505050158015610907573d6000803e3d6000610904610947565b50505b505050506040513d601f19601f8201168201806040525061092b9190810190610e3d565b73ffffffffffffffffffffffffffffffffffffffff1614905090565b632a2a7adb598160e01b8152600481016020815285602082015260005b86811015610982578086015181604084010152602081019050610964565b506020828760640184336000905af158601d01573d60011458600c01573d6000803e3d621234565260ea61109c52505050565b6303daa959598160e01b8152836004820152602081602483336000905af158601d01573d60011458600c01573d6000803e3d621234565260ea61109c528051935060005b6040811015610a13576000818301526020810190506109f9565b505050565b6373509064598160e01b8152602081600483336000905af158601d01573d60011458600c01573d6000803e3d621234565260ea61109c528051935060005b6040811015610a7057600081830152602081019050610a56565b505050565b6322bd64c0598160e01b8152836004820152846024820152600081604483336000905af158601d01573d60011458600c01573d6000803e3d621234565260ea61109c5260005b6040811015610ad557600081830152602081019050610abb565b505050565b638435035b598160e01b8152836004820152602081602483336000905af158601d01573d60011458600c01573d6000803e3d621234565260ea61109c528051935060005b6040811015610b3857600081830152602081019050610b1e565b505050565b638540661f598160e01b8152836004820152846024820152606060448201528660648201526084810160005b88811015610b84578088015181830152602081019050610b69565b506060828960a40184336000905af158601d01573d60011458600c01573d6000803e3d621234565260ea61109c52815160408301513d6000853e8b8b82606087013350600060045af15059845b81811015610be85760008152602081019050610bd1565b50829c50505050505050565b6385979f76598160e01b8152836004820152846024820152606060448201528760648201526084810160005b89811015610c3b578089015181830152602081019050610c20565b506060828a60a40184336000905af158601d01573d60011458600c01573d6000803e3d621234565260ea61109c52815160408301513d6000853e8c8c82606087013350600060045af15059845b81811015610c9f5760008152602081019050610c88565b50829d50505050505050565b635a98c361598160e01b8152602081600483336000905af158601d01573d60011458600c01573d6000803e3d621234565260ea61109c528051935060005b6040811015610d0357600081830152602081019050610ce9565b505050565b600081359050610d178161151a565b92915050565b600081519050610d2c8161151a565b92915050565b600081359050610d418161153a565b92915050565b600082601f830112610d6157600080610d5e610947565b50505b8135610d74610d6f8261136b565b611335565b91508082526020830160208301858383011115610d9957600080610d96610947565b50505b610da483828461148c565b50505092915050565b600082601f830112610dc757600080610dc4610947565b50505b8135610dda610dd5826113a0565b611335565b91508082526020830160208301858383011115610dff57600080610dfc610947565b50505b610e0a83828461148c565b50505092915050565b600081359050610e228161155a565b92915050565b600081359050610e378161157a565b92915050565b600060208284031215610e5857600080610e55610947565b50505b6000610e6684828501610d1d565b91505092915050565b60008060008060808587031215610e8e57600080610e8b610947565b50505b6000610e9c87828801610d08565b9450506020610ead87828801610d08565b935050604085013567ffffffffffffffff811115610ed357600080610ed0610947565b50505b610edf87828801610d47565b9250506060610ef087828801610e13565b91505092959194509250565b600080600060608486031215610f1a57600080610f17610947565b50505b6000610f2886828701610d08565b935050602084013567ffffffffffffffff811115610f4e57600080610f4b610947565b50505b610f5a86828701610d47565b9250506040610f6b86828701610e28565b9150509250925092565b600060208284031215610f9057600080610f8d610947565b50505b6000610f9e84828501610d32565b91505092915050565b600060208284031215610fc257600080610fbf610947565b50505b600082013567ffffffffffffffff811115610fe557600080610fe2610947565b50505b610ff184828501610dad565b91505092915050565b61100b6110068261142a565b6114ce565b82525050565b61101a81611418565b82525050565b6110298161143c565b82525050565b600061103a826113d5565b61104481856113eb565b935061105481856020860161149b565b61105d816114fc565b840191505092915050565b6000611073826113d5565b61107d81856113fc565b935061108d81856020860161149b565b80840191505092915050565b60006110a4826113e0565b6110ae8185611407565b93506110be81856020860161149b565b6110c7816114fc565b840191505092915050565b60006110df602b83611407565b91507f50726f7669646564206d6573736167652068617320616c72656164792062656560008301527f6e2072656365697665642e0000000000000000000000000000000000000000006020830152604082019050919050565b6000611145602783611407565b91507f50726f7669646564206d65737361676520636f756c64206e6f7420626520766560008301527f7269666965642e000000000000000000000000000000000000000000000000006020830152604082019050919050565b6111a781611472565b82525050565b6111be6111b982611472565b6114f2565b82525050565b60006111d08284611068565b915081905092915050565b60006111e78286611068565b91506111f38285610ffa565b60148201915061120382846111ad565b602082019150819050949350505050565b60006020820190506112296000830184611011565b92915050565b60006080820190506112446000830187611011565b6112516020830186611011565b8181036040830152611263818561102f565b9050611272606083018461119e565b95945050505050565b60006020820190506112906000830184611020565b92915050565b600060208201905081810360008301526112b0818461102f565b905092915050565b600060208201905081810360008301526112d28184611099565b905092915050565b600060208201905081810360008301526112f3816110d2565b9050919050565b6000602082019050818103600083015261131381611138565b9050919050565b600060208201905061132f600083018461119e565b92915050565b6000604051905081810181811067ffffffffffffffff821117156113615760008061135e610947565b50505b8060405250919050565b600067ffffffffffffffff82111561138b57600080611388610947565b50505b601f19601f8301169050602081019050919050565b600067ffffffffffffffff8211156113c0576000806113bd610947565b50505b601f19601f8301169050602081019050919050565b600081519050919050565b600081519050919050565b600082825260208201905092915050565b600081905092915050565b600082825260208201905092915050565b600061142382611452565b9050919050565b600061143582611452565b9050919050565b60008115159050919050565b6000819050919050565b600073ffffffffffffffffffffffffffffffffffffffff82169050919050565b6000819050919050565b600063ffffffff82169050919050565b82818337600083830152505050565b60005b838110156114b957808201518184015260208101905061149e565b838111156114c8576000848401525b50505050565b60006114d9826114e0565b9050919050565b60006114eb8261150d565b9050919050565b6000819050919050565b6000601f19601f8301169050919050565b60008160601b9050919050565b61152381611418565b811461153757600080611534610947565b50505b50565b61154381611448565b811461155757600080611554610947565b50505b50565b61156381611472565b811461157757600080611574610947565b50505b50565b6115838161147c565b811461159757600080611594610947565b50505b5056",
      "opcodes": "PUSH1 0x80 PUSH1 0x40 MSTORE CALLVALUE DUP1 ISZERO PUSH2 0x19 JUMPI PUSH1 0x0 DUP1 PUSH2 0x16 PUSH2 0x947 JUMP JUMPDEST POP POP JUMPDEST POP PUSH1 0x4 CALLDATASIZE LT PUSH2 0x91 JUMPI PUSH1 0x0 CALLDATALOAD PUSH1 0xE0 SHR DUP1 PUSH4 0x82E3702D GT PUSH2 0x64 JUMPI DUP1 PUSH4 0x82E3702D EQ PUSH2 0x139 JUMPI DUP1 PUSH4 0xB1B1B209 EQ PUSH2 0x169 JUMPI DUP1 PUSH4 0xCBD4ECE9 EQ PUSH2 0x199 JUMPI DUP1 PUSH4 0xECC70428 EQ PUSH2 0x1B5 JUMPI PUSH2 0x91 JUMP JUMPDEST DUP1 PUSH4 0x21D800EC EQ PUSH2 0x9F JUMPI DUP1 PUSH4 0x3DBB202B EQ PUSH2 0xCF JUMPI DUP1 PUSH4 0x461A4478 EQ PUSH2 0xEB JUMPI DUP1 PUSH4 0x6E296E45 EQ PUSH2 0x11B JUMPI JUMPDEST PUSH1 0x0 DUP1 PUSH2 0x9C PUSH2 0x947 JUMP JUMPDEST POP POP JUMPDEST PUSH2 0xB9 PUSH1 0x4 DUP1 CALLDATASIZE SUB PUSH2 0xB4 SWAP2 SWAP1 DUP2 ADD SWAP1 PUSH2 0xF75 JUMP JUMPDEST PUSH2 0x1D3 JUMP JUMPDEST PUSH1 0x40 MLOAD PUSH2 0xC6 SWAP2 SWAP1 PUSH2 0x127B JUMP JUMPDEST PUSH1 0x40 MLOAD DUP1 SWAP2 SUB SWAP1 RETURN JUMPDEST PUSH2 0xE9 PUSH1 0x4 DUP1 CALLDATASIZE SUB PUSH2 0xE4 SWAP2 SWAP1 DUP2 ADD SWAP1 PUSH2 0xEFC JUMP JUMPDEST PUSH2 0x1FA JUMP JUMPDEST STOP JUMPDEST PUSH2 0x105 PUSH1 0x4 DUP1 CALLDATASIZE SUB PUSH2 0x100 SWAP2 SWAP1 DUP2 ADD SWAP1 PUSH2 0xFA7 JUMP JUMPDEST PUSH2 0x295 JUMP JUMPDEST PUSH1 0x40 MLOAD PUSH2 0x112 SWAP2 SWAP1 PUSH2 0x1214 JUMP JUMPDEST PUSH1 0x40 MLOAD DUP1 SWAP2 SUB SWAP1 RETURN JUMPDEST PUSH2 0x123 PUSH2 0x375 JUMP JUMPDEST PUSH1 0x40 MLOAD PUSH2 0x130 SWAP2 SWAP1 PUSH2 0x1214 JUMP JUMPDEST PUSH1 0x40 MLOAD DUP1 SWAP2 SUB SWAP1 RETURN JUMPDEST PUSH2 0x153 PUSH1 0x4 DUP1 CALLDATASIZE SUB PUSH2 0x14E SWAP2 SWAP1 DUP2 ADD SWAP1 PUSH2 0xF75 JUMP JUMPDEST PUSH2 0x3A2 JUMP JUMPDEST PUSH1 0x40 MLOAD PUSH2 0x160 SWAP2 SWAP1 PUSH2 0x127B JUMP JUMPDEST PUSH1 0x40 MLOAD DUP1 SWAP2 SUB SWAP1 RETURN JUMPDEST PUSH2 0x183 PUSH1 0x4 DUP1 CALLDATASIZE SUB PUSH2 0x17E SWAP2 SWAP1 DUP2 ADD SWAP1 PUSH2 0xF75 JUMP JUMPDEST PUSH2 0x3C9 JUMP JUMPDEST PUSH1 0x40 MLOAD PUSH2 0x190 SWAP2 SWAP1 PUSH2 0x127B JUMP JUMPDEST PUSH1 0x40 MLOAD DUP1 SWAP2 SUB SWAP1 RETURN JUMPDEST PUSH2 0x1B3 PUSH1 0x4 DUP1 CALLDATASIZE SUB PUSH2 0x1AE SWAP2 SWAP1 DUP2 ADD SWAP1 PUSH2 0xE6F JUMP JUMPDEST PUSH2 0x3F0 JUMP JUMPDEST STOP JUMPDEST PUSH2 0x1BD PUSH2 0x673 JUMP JUMPDEST PUSH1 0x40 MLOAD PUSH2 0x1CA SWAP2 SWAP1 PUSH2 0x131A JUMP JUMPDEST PUSH1 0x40 MLOAD DUP1 SWAP2 SUB SWAP1 RETURN JUMPDEST PUSH1 0x0 PUSH1 0x20 MSTORE DUP1 PUSH1 0x0 MSTORE PUSH1 0x40 PUSH1 0x0 KECCAK256 PUSH1 0x0 SWAP2 POP PUSH2 0x1ED PUSH2 0x9B5 JUMP JUMPDEST SWAP1 PUSH2 0x100 EXP SWAP1 DIV PUSH1 0xFF AND DUP2 JUMP JUMPDEST PUSH1 0x60 PUSH2 0x219 DUP5 GAS PUSH2 0x209 PUSH2 0xA18 JUMP JUMPDEST DUP6 PUSH1 0x3 PUSH2 0x214 PUSH2 0x9B5 JUMP JUMPDEST PUSH2 0x680 JUMP JUMPDEST SWAP1 POP PUSH2 0x22B DUP2 DUP4 PUSH4 0xFFFFFFFF AND PUSH2 0x720 JUMP JUMPDEST PUSH1 0x1 PUSH1 0x3 PUSH1 0x0 DUP3 DUP3 PUSH2 0x23B PUSH2 0x9B5 JUMP JUMPDEST ADD SWAP3 POP POP DUP2 SWAP1 PUSH2 0x249 PUSH2 0xA75 JUMP JUMPDEST POP POP POP PUSH1 0x1 PUSH1 0x2 PUSH1 0x0 DUP4 DUP1 MLOAD SWAP1 PUSH1 0x20 ADD KECCAK256 DUP2 MSTORE PUSH1 0x20 ADD SWAP1 DUP2 MSTORE PUSH1 0x20 ADD PUSH1 0x0 KECCAK256 PUSH1 0x0 PUSH2 0x100 EXP DUP2 PUSH2 0x277 PUSH2 0x9B5 JUMP JUMPDEST DUP2 PUSH1 0xFF MUL NOT AND SWAP1 DUP4 ISZERO ISZERO MUL OR SWAP1 PUSH2 0x28C PUSH2 0xA75 JUMP JUMPDEST POP POP POP POP POP POP POP JUMP JUMPDEST PUSH1 0x0 PUSH1 0x5 PUSH1 0x0 SWAP1 PUSH2 0x2A4 PUSH2 0x9B5 JUMP JUMPDEST SWAP1 PUSH2 0x100 EXP SWAP1 DIV PUSH20 0xFFFFFFFFFFFFFFFFFFFFFFFFFFFFFFFFFFFFFFFF AND PUSH20 0xFFFFFFFFFFFFFFFFFFFFFFFFFFFFFFFFFFFFFFFF AND PUSH4 0xBF40FAC1 DUP4 PUSH1 0x40 MLOAD DUP3 PUSH4 0xFFFFFFFF AND PUSH1 0xE0 SHL DUP2 MSTORE PUSH1 0x4 ADD PUSH2 0x2F9 SWAP2 SWAP1 PUSH2 0x12B8 JUMP JUMPDEST PUSH1 0x20 PUSH1 0x40 MLOAD DUP1 DUP4 SUB DUP2 DUP7 DUP1 PUSH2 0x30C PUSH2 0xADA JUMP JUMPDEST ISZERO DUP1 ISZERO PUSH2 0x321 JUMPI PUSH1 0x0 DUP1 PUSH2 0x31E PUSH2 0x947 JUMP JUMPDEST POP POP JUMPDEST POP GAS PUSH2 0x32B PUSH2 0xB3D JUMP JUMPDEST POP POP POP POP POP ISZERO DUP1 ISZERO PUSH2 0x34A JUMPI RETURNDATASIZE PUSH1 0x0 DUP1 RETURNDATACOPY RETURNDATASIZE PUSH1 0x0 PUSH2 0x347 PUSH2 0x947 JUMP JUMPDEST POP POP JUMPDEST POP POP POP POP PUSH1 0x40 MLOAD RETURNDATASIZE PUSH1 0x1F NOT PUSH1 0x1F DUP3 ADD AND DUP3 ADD DUP1 PUSH1 0x40 MSTORE POP PUSH2 0x36E SWAP2 SWAP1 DUP2 ADD SWAP1 PUSH2 0xE3D JUMP JUMPDEST SWAP1 POP SWAP2 SWAP1 POP JUMP JUMPDEST PUSH1 0x4 PUSH1 0x0 SWAP1 PUSH2 0x382 PUSH2 0x9B5 JUMP JUMPDEST SWAP1 PUSH2 0x100 EXP SWAP1 DIV PUSH20 0xFFFFFFFFFFFFFFFFFFFFFFFFFFFFFFFFFFFFFFFF AND DUP2 JUMP JUMPDEST PUSH1 0x2 PUSH1 0x20 MSTORE DUP1 PUSH1 0x0 MSTORE PUSH1 0x40 PUSH1 0x0 KECCAK256 PUSH1 0x0 SWAP2 POP PUSH2 0x3BC PUSH2 0x9B5 JUMP JUMPDEST SWAP1 PUSH2 0x100 EXP SWAP1 DIV PUSH1 0xFF AND DUP2 JUMP JUMPDEST PUSH1 0x1 PUSH1 0x20 MSTORE DUP1 PUSH1 0x0 MSTORE PUSH1 0x40 PUSH1 0x0 KECCAK256 PUSH1 0x0 SWAP2 POP PUSH2 0x3E3 PUSH2 0x9B5 JUMP JUMPDEST SWAP1 PUSH2 0x100 EXP SWAP1 DIV PUSH1 0xFF AND DUP2 JUMP JUMPDEST PUSH1 0x1 ISZERO ISZERO PUSH2 0x3FC PUSH2 0x7F2 JUMP JUMPDEST ISZERO ISZERO EQ PUSH2 0x447 JUMPI PUSH1 0x40 MLOAD PUSH32 0x8C379A000000000000000000000000000000000000000000000000000000000 DUP2 MSTORE PUSH1 0x4 ADD PUSH2 0x435 SWAP1 PUSH2 0x12FA JUMP JUMPDEST PUSH1 0x40 MLOAD DUP1 SWAP2 SUB SWAP1 PUSH2 0x444 PUSH2 0x947 JUMP JUMPDEST POP POP JUMPDEST PUSH1 0x60 PUSH2 0x455 DUP6 DUP6 DUP6 DUP6 PUSH2 0x680 JUMP JUMPDEST SWAP1 POP PUSH1 0x0 ISZERO ISZERO PUSH1 0x1 PUSH1 0x0 DUP4 DUP1 MLOAD SWAP1 PUSH1 0x20 ADD KECCAK256 DUP2 MSTORE PUSH1 0x20 ADD SWAP1 DUP2 MSTORE PUSH1 0x20 ADD PUSH1 0x0 KECCAK256 PUSH1 0x0 SWAP1 PUSH2 0x480 PUSH2 0x9B5 JUMP JUMPDEST SWAP1 PUSH2 0x100 EXP SWAP1 DIV PUSH1 0xFF AND ISZERO ISZERO EQ PUSH2 0x4D5 JUMPI PUSH1 0x40 MLOAD PUSH32 0x8C379A000000000000000000000000000000000000000000000000000000000 DUP2 MSTORE PUSH1 0x4 ADD PUSH2 0x4C3 SWAP1 PUSH2 0x12DA JUMP JUMPDEST PUSH1 0x40 MLOAD DUP1 SWAP2 SUB SWAP1 PUSH2 0x4D2 PUSH2 0x947 JUMP JUMPDEST POP POP JUMPDEST DUP4 PUSH1 0x4 PUSH1 0x0 PUSH2 0x100 EXP DUP2 PUSH2 0x4E7 PUSH2 0x9B5 JUMP JUMPDEST DUP2 PUSH20 0xFFFFFFFFFFFFFFFFFFFFFFFFFFFFFFFFFFFFFFFF MUL NOT AND SWAP1 DUP4 PUSH20 0xFFFFFFFFFFFFFFFFFFFFFFFFFFFFFFFFFFFFFFFF AND MUL OR SWAP1 PUSH2 0x523 PUSH2 0xA75 JUMP JUMPDEST POP POP POP PUSH1 0x0 DUP6 PUSH20 0xFFFFFFFFFFFFFFFFFFFFFFFFFFFFFFFFFFFFFFFF AND DUP5 PUSH1 0x40 MLOAD PUSH2 0x54D SWAP2 SWAP1 PUSH2 0x11C4 JUMP JUMPDEST PUSH1 0x0 PUSH1 0x40 MLOAD DUP1 DUP4 SUB DUP2 PUSH1 0x0 DUP7 GAS PUSH2 0x562 PUSH2 0xBF4 JUMP JUMPDEST POP POP POP POP POP POP SWAP2 POP POP RETURNDATASIZE DUP1 PUSH1 0x0 DUP2 EQ PUSH2 0x597 JUMPI PUSH1 0x40 MLOAD SWAP2 POP PUSH1 0x1F NOT PUSH1 0x3F RETURNDATASIZE ADD AND DUP3 ADD PUSH1 0x40 MSTORE RETURNDATASIZE DUP3 MSTORE RETURNDATASIZE PUSH1 0x0 PUSH1 0x20 DUP5 ADD RETURNDATACOPY PUSH2 0x59C JUMP JUMPDEST PUSH1 0x60 SWAP2 POP JUMPDEST POP POP SWAP1 POP PUSH1 0x1 ISZERO ISZERO DUP2 ISZERO ISZERO EQ ISZERO PUSH2 0x5F0 JUMPI PUSH1 0x1 DUP1 PUSH1 0x0 DUP5 DUP1 MLOAD SWAP1 PUSH1 0x20 ADD KECCAK256 DUP2 MSTORE PUSH1 0x20 ADD SWAP1 DUP2 MSTORE PUSH1 0x20 ADD PUSH1 0x0 KECCAK256 PUSH1 0x0 PUSH2 0x100 EXP DUP2 PUSH2 0x5D7 PUSH2 0x9B5 JUMP JUMPDEST DUP2 PUSH1 0xFF MUL NOT AND SWAP1 DUP4 ISZERO ISZERO MUL OR SWAP1 PUSH2 0x5EC PUSH2 0xA75 JUMP JUMPDEST POP POP POP JUMPDEST PUSH1 0x0 DUP3 GAS PUSH2 0x5FC PUSH2 0xA18 JUMP JUMPDEST GAS PUSH2 0x605 PUSH2 0xCAB JUMP JUMPDEST PUSH1 0x40 MLOAD PUSH1 0x20 ADD PUSH2 0x617 SWAP4 SWAP3 SWAP2 SWAP1 PUSH2 0x11DB JUMP JUMPDEST PUSH1 0x40 MLOAD PUSH1 0x20 DUP2 DUP4 SUB SUB DUP2 MSTORE SWAP1 PUSH1 0x40 MSTORE DUP1 MLOAD SWAP1 PUSH1 0x20 ADD KECCAK256 SWAP1 POP PUSH1 0x1 PUSH1 0x0 DUP1 DUP4 DUP2 MSTORE PUSH1 0x20 ADD SWAP1 DUP2 MSTORE PUSH1 0x20 ADD PUSH1 0x0 KECCAK256 PUSH1 0x0 PUSH2 0x100 EXP DUP2 PUSH2 0x652 PUSH2 0x9B5 JUMP JUMPDEST DUP2 PUSH1 0xFF MUL NOT AND SWAP1 DUP4 ISZERO ISZERO MUL OR SWAP1 PUSH2 0x667 PUSH2 0xA75 JUMP JUMPDEST POP POP POP POP POP POP POP POP POP POP JUMP JUMPDEST PUSH1 0x3 PUSH2 0x67D PUSH2 0x9B5 JUMP JUMPDEST DUP2 JUMP JUMPDEST PUSH1 0x60 DUP5 DUP5 DUP5 DUP5 PUSH1 0x40 MLOAD PUSH1 0x24 ADD PUSH2 0x699 SWAP5 SWAP4 SWAP3 SWAP2 SWAP1 PUSH2 0x122F JUMP JUMPDEST PUSH1 0x40 MLOAD PUSH1 0x20 DUP2 DUP4 SUB SUB DUP2 MSTORE SWAP1 PUSH1 0x40 MSTORE PUSH32 0xCBD4ECE900000000000000000000000000000000000000000000000000000000 PUSH28 0xFFFFFFFFFFFFFFFFFFFFFFFFFFFFFFFFFFFFFFFFFFFFFFFFFFFFFFFF NOT AND PUSH1 0x20 DUP3 ADD DUP1 MLOAD PUSH28 0xFFFFFFFFFFFFFFFFFFFFFFFFFFFFFFFFFFFFFFFFFFFFFFFFFFFFFFFF DUP4 DUP2 DUP4 AND OR DUP4 MSTORE POP POP POP POP SWAP1 POP SWAP5 SWAP4 POP POP POP POP JUMP JUMPDEST PUSH2 0x75E PUSH1 0x40 MLOAD DUP1 PUSH1 0x40 ADD PUSH1 0x40 MSTORE DUP1 PUSH1 0x17 DUP2 MSTORE PUSH1 0x20 ADD PUSH32 0x4F564D5F4C32546F4C314D657373616765506173736572000000000000000000 DUP2 MSTORE POP PUSH2 0x295 JUMP JUMPDEST PUSH20 0xFFFFFFFFFFFFFFFFFFFFFFFFFFFFFFFFFFFFFFFF AND PUSH4 0xCAFA81DC DUP4 PUSH1 0x40 MLOAD DUP3 PUSH4 0xFFFFFFFF AND PUSH1 0xE0 SHL DUP2 MSTORE PUSH1 0x4 ADD PUSH2 0x796 SWAP2 SWAP1 PUSH2 0x1296 JUMP JUMPDEST PUSH1 0x0 PUSH1 0x40 MLOAD DUP1 DUP4 SUB DUP2 PUSH1 0x0 DUP8 DUP1 PUSH2 0x7AB PUSH2 0xADA JUMP JUMPDEST ISZERO DUP1 ISZERO PUSH2 0x7C0 JUMPI PUSH1 0x0 DUP1 PUSH2 0x7BD PUSH2 0x947 JUMP JUMPDEST POP POP JUMPDEST POP GAS PUSH2 0x7CA PUSH2 0xBF4 JUMP JUMPDEST POP POP POP POP POP POP ISZERO DUP1 ISZERO PUSH2 0x7EA JUMPI RETURNDATASIZE PUSH1 0x0 DUP1 RETURNDATACOPY RETURNDATASIZE PUSH1 0x0 PUSH2 0x7E7 PUSH2 0x947 JUMP JUMPDEST POP POP JUMPDEST POP POP POP POP POP POP JUMP JUMPDEST PUSH1 0x0 PUSH2 0x832 PUSH1 0x40 MLOAD DUP1 PUSH1 0x40 ADD PUSH1 0x40 MSTORE DUP1 PUSH1 0x1A DUP2 MSTORE PUSH1 0x20 ADD PUSH32 0x4F564D5F4C3143726F7373446F6D61696E4D657373656E676572000000000000 DUP2 MSTORE POP PUSH2 0x295 JUMP JUMPDEST PUSH20 0xFFFFFFFFFFFFFFFFFFFFFFFFFFFFFFFFFFFFFFFF AND PUSH2 0x886 PUSH1 0x40 MLOAD DUP1 PUSH1 0x40 ADD PUSH1 0x40 MSTORE DUP1 PUSH1 0x13 DUP2 MSTORE PUSH1 0x20 ADD PUSH32 0x4F564D5F4C314D65737361676553656E64657200000000000000000000000000 DUP2 MSTORE POP PUSH2 0x295 JUMP JUMPDEST PUSH20 0xFFFFFFFFFFFFFFFFFFFFFFFFFFFFFFFFFFFFFFFF AND PUSH4 0xD2034106 PUSH1 0x40 MLOAD DUP2 PUSH4 0xFFFFFFFF AND PUSH1 0xE0 SHL DUP2 MSTORE PUSH1 0x4 ADD PUSH1 0x20 PUSH1 0x40 MLOAD DUP1 DUP4 SUB DUP2 PUSH1 0x0 DUP8 DUP1 PUSH2 0x8C8 PUSH2 0xADA JUMP JUMPDEST ISZERO DUP1 ISZERO PUSH2 0x8DD JUMPI PUSH1 0x0 DUP1 PUSH2 0x8DA PUSH2 0x947 JUMP JUMPDEST POP POP JUMPDEST POP GAS PUSH2 0x8E7 PUSH2 0xBF4 JUMP JUMPDEST POP POP POP POP POP POP ISZERO DUP1 ISZERO PUSH2 0x907 JUMPI RETURNDATASIZE PUSH1 0x0 DUP1 RETURNDATACOPY RETURNDATASIZE PUSH1 0x0 PUSH2 0x904 PUSH2 0x947 JUMP JUMPDEST POP POP JUMPDEST POP POP POP POP PUSH1 0x40 MLOAD RETURNDATASIZE PUSH1 0x1F NOT PUSH1 0x1F DUP3 ADD AND DUP3 ADD DUP1 PUSH1 0x40 MSTORE POP PUSH2 0x92B SWAP2 SWAP1 DUP2 ADD SWAP1 PUSH2 0xE3D JUMP JUMPDEST PUSH20 0xFFFFFFFFFFFFFFFFFFFFFFFFFFFFFFFFFFFFFFFF AND EQ SWAP1 POP SWAP1 JUMP JUMPDEST PUSH4 0x2A2A7ADB MSIZE DUP2 PUSH1 0xE0 SHL DUP2 MSTORE PUSH1 0x4 DUP2 ADD PUSH1 0x20 DUP2 MSTORE DUP6 PUSH1 0x20 DUP3 ADD MSTORE PUSH1 0x0 JUMPDEST DUP7 DUP2 LT ISZERO PUSH2 0x982 JUMPI DUP1 DUP7 ADD MLOAD DUP2 PUSH1 0x40 DUP5 ADD ADD MSTORE PUSH1 0x20 DUP2 ADD SWAP1 POP PUSH2 0x964 JUMP JUMPDEST POP PUSH1 0x20 DUP3 DUP8 PUSH1 0x64 ADD DUP5 CALLER PUSH1 0x0 SWAP1 GAS CALL PC PUSH1 0x1D ADD JUMPI RETURNDATASIZE PUSH1 0x1 EQ PC PUSH1 0xC ADD JUMPI RETURNDATASIZE PUSH1 0x0 DUP1 RETURNDATACOPY RETURNDATASIZE PUSH3 0x123456 MSTORE PUSH1 0xEA PUSH2 0x109C MSTORE POP POP POP JUMP JUMPDEST PUSH4 0x3DAA959 MSIZE DUP2 PUSH1 0xE0 SHL DUP2 MSTORE DUP4 PUSH1 0x4 DUP3 ADD MSTORE PUSH1 0x20 DUP2 PUSH1 0x24 DUP4 CALLER PUSH1 0x0 SWAP1 GAS CALL PC PUSH1 0x1D ADD JUMPI RETURNDATASIZE PUSH1 0x1 EQ PC PUSH1 0xC ADD JUMPI RETURNDATASIZE PUSH1 0x0 DUP1 RETURNDATACOPY RETURNDATASIZE PUSH3 0x123456 MSTORE PUSH1 0xEA PUSH2 0x109C MSTORE DUP1 MLOAD SWAP4 POP PUSH1 0x0 JUMPDEST PUSH1 0x40 DUP2 LT ISZERO PUSH2 0xA13 JUMPI PUSH1 0x0 DUP2 DUP4 ADD MSTORE PUSH1 0x20 DUP2 ADD SWAP1 POP PUSH2 0x9F9 JUMP JUMPDEST POP POP POP JUMP JUMPDEST PUSH4 0x73509064 MSIZE DUP2 PUSH1 0xE0 SHL DUP2 MSTORE PUSH1 0x20 DUP2 PUSH1 0x4 DUP4 CALLER PUSH1 0x0 SWAP1 GAS CALL PC PUSH1 0x1D ADD JUMPI RETURNDATASIZE PUSH1 0x1 EQ PC PUSH1 0xC ADD JUMPI RETURNDATASIZE PUSH1 0x0 DUP1 RETURNDATACOPY RETURNDATASIZE PUSH3 0x123456 MSTORE PUSH1 0xEA PUSH2 0x109C MSTORE DUP1 MLOAD SWAP4 POP PUSH1 0x0 JUMPDEST PUSH1 0x40 DUP2 LT ISZERO PUSH2 0xA70 JUMPI PUSH1 0x0 DUP2 DUP4 ADD MSTORE PUSH1 0x20 DUP2 ADD SWAP1 POP PUSH2 0xA56 JUMP JUMPDEST POP POP POP JUMP JUMPDEST PUSH4 0x22BD64C0 MSIZE DUP2 PUSH1 0xE0 SHL DUP2 MSTORE DUP4 PUSH1 0x4 DUP3 ADD MSTORE DUP5 PUSH1 0x24 DUP3 ADD MSTORE PUSH1 0x0 DUP2 PUSH1 0x44 DUP4 CALLER PUSH1 0x0 SWAP1 GAS CALL PC PUSH1 0x1D ADD JUMPI RETURNDATASIZE PUSH1 0x1 EQ PC PUSH1 0xC ADD JUMPI RETURNDATASIZE PUSH1 0x0 DUP1 RETURNDATACOPY RETURNDATASIZE PUSH3 0x123456 MSTORE PUSH1 0xEA PUSH2 0x109C MSTORE PUSH1 0x0 JUMPDEST PUSH1 0x40 DUP2 LT ISZERO PUSH2 0xAD5 JUMPI PUSH1 0x0 DUP2 DUP4 ADD MSTORE PUSH1 0x20 DUP2 ADD SWAP1 POP PUSH2 0xABB JUMP JUMPDEST POP POP POP JUMP JUMPDEST PUSH4 0x8435035B MSIZE DUP2 PUSH1 0xE0 SHL DUP2 MSTORE DUP4 PUSH1 0x4 DUP3 ADD MSTORE PUSH1 0x20 DUP2 PUSH1 0x24 DUP4 CALLER PUSH1 0x0 SWAP1 GAS CALL PC PUSH1 0x1D ADD JUMPI RETURNDATASIZE PUSH1 0x1 EQ PC PUSH1 0xC ADD JUMPI RETURNDATASIZE PUSH1 0x0 DUP1 RETURNDATACOPY RETURNDATASIZE PUSH3 0x123456 MSTORE PUSH1 0xEA PUSH2 0x109C MSTORE DUP1 MLOAD SWAP4 POP PUSH1 0x0 JUMPDEST PUSH1 0x40 DUP2 LT ISZERO PUSH2 0xB38 JUMPI PUSH1 0x0 DUP2 DUP4 ADD MSTORE PUSH1 0x20 DUP2 ADD SWAP1 POP PUSH2 0xB1E JUMP JUMPDEST POP POP POP JUMP JUMPDEST PUSH4 0x8540661F MSIZE DUP2 PUSH1 0xE0 SHL DUP2 MSTORE DUP4 PUSH1 0x4 DUP3 ADD MSTORE DUP5 PUSH1 0x24 DUP3 ADD MSTORE PUSH1 0x60 PUSH1 0x44 DUP3 ADD MSTORE DUP7 PUSH1 0x64 DUP3 ADD MSTORE PUSH1 0x84 DUP2 ADD PUSH1 0x0 JUMPDEST DUP9 DUP2 LT ISZERO PUSH2 0xB84 JUMPI DUP1 DUP9 ADD MLOAD DUP2 DUP4 ADD MSTORE PUSH1 0x20 DUP2 ADD SWAP1 POP PUSH2 0xB69 JUMP JUMPDEST POP PUSH1 0x60 DUP3 DUP10 PUSH1 0xA4 ADD DUP5 CALLER PUSH1 0x0 SWAP1 GAS CALL PC PUSH1 0x1D ADD JUMPI RETURNDATASIZE PUSH1 0x1 EQ PC PUSH1 0xC ADD JUMPI RETURNDATASIZE PUSH1 0x0 DUP1 RETURNDATACOPY RETURNDATASIZE PUSH3 0x123456 MSTORE PUSH1 0xEA PUSH2 0x109C MSTORE DUP2 MLOAD PUSH1 0x40 DUP4 ADD MLOAD RETURNDATASIZE PUSH1 0x0 DUP6 RETURNDATACOPY DUP12 DUP12 DUP3 PUSH1 0x60 DUP8 ADD CALLER POP PUSH1 0x0 PUSH1 0x4 GAS CALL POP MSIZE DUP5 JUMPDEST DUP2 DUP2 LT ISZERO PUSH2 0xBE8 JUMPI PUSH1 0x0 DUP2 MSTORE PUSH1 0x20 DUP2 ADD SWAP1 POP PUSH2 0xBD1 JUMP JUMPDEST POP DUP3 SWAP13 POP POP POP POP POP POP POP JUMP JUMPDEST PUSH4 0x85979F76 MSIZE DUP2 PUSH1 0xE0 SHL DUP2 MSTORE DUP4 PUSH1 0x4 DUP3 ADD MSTORE DUP5 PUSH1 0x24 DUP3 ADD MSTORE PUSH1 0x60 PUSH1 0x44 DUP3 ADD MSTORE DUP8 PUSH1 0x64 DUP3 ADD MSTORE PUSH1 0x84 DUP2 ADD PUSH1 0x0 JUMPDEST DUP10 DUP2 LT ISZERO PUSH2 0xC3B JUMPI DUP1 DUP10 ADD MLOAD DUP2 DUP4 ADD MSTORE PUSH1 0x20 DUP2 ADD SWAP1 POP PUSH2 0xC20 JUMP JUMPDEST POP PUSH1 0x60 DUP3 DUP11 PUSH1 0xA4 ADD DUP5 CALLER PUSH1 0x0 SWAP1 GAS CALL PC PUSH1 0x1D ADD JUMPI RETURNDATASIZE PUSH1 0x1 EQ PC PUSH1 0xC ADD JUMPI RETURNDATASIZE PUSH1 0x0 DUP1 RETURNDATACOPY RETURNDATASIZE PUSH3 0x123456 MSTORE PUSH1 0xEA PUSH2 0x109C MSTORE DUP2 MLOAD PUSH1 0x40 DUP4 ADD MLOAD RETURNDATASIZE PUSH1 0x0 DUP6 RETURNDATACOPY DUP13 DUP13 DUP3 PUSH1 0x60 DUP8 ADD CALLER POP PUSH1 0x0 PUSH1 0x4 GAS CALL POP MSIZE DUP5 JUMPDEST DUP2 DUP2 LT ISZERO PUSH2 0xC9F JUMPI PUSH1 0x0 DUP2 MSTORE PUSH1 0x20 DUP2 ADD SWAP1 POP PUSH2 0xC88 JUMP JUMPDEST POP DUP3 SWAP14 POP POP POP POP POP POP POP JUMP JUMPDEST PUSH4 0x5A98C361 MSIZE DUP2 PUSH1 0xE0 SHL DUP2 MSTORE PUSH1 0x20 DUP2 PUSH1 0x4 DUP4 CALLER PUSH1 0x0 SWAP1 GAS CALL PC PUSH1 0x1D ADD JUMPI RETURNDATASIZE PUSH1 0x1 EQ PC PUSH1 0xC ADD JUMPI RETURNDATASIZE PUSH1 0x0 DUP1 RETURNDATACOPY RETURNDATASIZE PUSH3 0x123456 MSTORE PUSH1 0xEA PUSH2 0x109C MSTORE DUP1 MLOAD SWAP4 POP PUSH1 0x0 JUMPDEST PUSH1 0x40 DUP2 LT ISZERO PUSH2 0xD03 JUMPI PUSH1 0x0 DUP2 DUP4 ADD MSTORE PUSH1 0x20 DUP2 ADD SWAP1 POP PUSH2 0xCE9 JUMP JUMPDEST POP POP POP JUMP JUMPDEST PUSH1 0x0 DUP2 CALLDATALOAD SWAP1 POP PUSH2 0xD17 DUP2 PUSH2 0x151A JUMP JUMPDEST SWAP3 SWAP2 POP POP JUMP JUMPDEST PUSH1 0x0 DUP2 MLOAD SWAP1 POP PUSH2 0xD2C DUP2 PUSH2 0x151A JUMP JUMPDEST SWAP3 SWAP2 POP POP JUMP JUMPDEST PUSH1 0x0 DUP2 CALLDATALOAD SWAP1 POP PUSH2 0xD41 DUP2 PUSH2 0x153A JUMP JUMPDEST SWAP3 SWAP2 POP POP JUMP JUMPDEST PUSH1 0x0 DUP3 PUSH1 0x1F DUP4 ADD SLT PUSH2 0xD61 JUMPI PUSH1 0x0 DUP1 PUSH2 0xD5E PUSH2 0x947 JUMP JUMPDEST POP POP JUMPDEST DUP2 CALLDATALOAD PUSH2 0xD74 PUSH2 0xD6F DUP3 PUSH2 0x136B JUMP JUMPDEST PUSH2 0x1335 JUMP JUMPDEST SWAP2 POP DUP1 DUP3 MSTORE PUSH1 0x20 DUP4 ADD PUSH1 0x20 DUP4 ADD DUP6 DUP4 DUP4 ADD GT ISZERO PUSH2 0xD99 JUMPI PUSH1 0x0 DUP1 PUSH2 0xD96 PUSH2 0x947 JUMP JUMPDEST POP POP JUMPDEST PUSH2 0xDA4 DUP4 DUP3 DUP5 PUSH2 0x148C JUMP JUMPDEST POP POP POP SWAP3 SWAP2 POP POP JUMP JUMPDEST PUSH1 0x0 DUP3 PUSH1 0x1F DUP4 ADD SLT PUSH2 0xDC7 JUMPI PUSH1 0x0 DUP1 PUSH2 0xDC4 PUSH2 0x947 JUMP JUMPDEST POP POP JUMPDEST DUP2 CALLDATALOAD PUSH2 0xDDA PUSH2 0xDD5 DUP3 PUSH2 0x13A0 JUMP JUMPDEST PUSH2 0x1335 JUMP JUMPDEST SWAP2 POP DUP1 DUP3 MSTORE PUSH1 0x20 DUP4 ADD PUSH1 0x20 DUP4 ADD DUP6 DUP4 DUP4 ADD GT ISZERO PUSH2 0xDFF JUMPI PUSH1 0x0 DUP1 PUSH2 0xDFC PUSH2 0x947 JUMP JUMPDEST POP POP JUMPDEST PUSH2 0xE0A DUP4 DUP3 DUP5 PUSH2 0x148C JUMP JUMPDEST POP POP POP SWAP3 SWAP2 POP POP JUMP JUMPDEST PUSH1 0x0 DUP2 CALLDATALOAD SWAP1 POP PUSH2 0xE22 DUP2 PUSH2 0x155A JUMP JUMPDEST SWAP3 SWAP2 POP POP JUMP JUMPDEST PUSH1 0x0 DUP2 CALLDATALOAD SWAP1 POP PUSH2 0xE37 DUP2 PUSH2 0x157A JUMP JUMPDEST SWAP3 SWAP2 POP POP JUMP JUMPDEST PUSH1 0x0 PUSH1 0x20 DUP3 DUP5 SUB SLT ISZERO PUSH2 0xE58 JUMPI PUSH1 0x0 DUP1 PUSH2 0xE55 PUSH2 0x947 JUMP JUMPDEST POP POP JUMPDEST PUSH1 0x0 PUSH2 0xE66 DUP5 DUP3 DUP6 ADD PUSH2 0xD1D JUMP JUMPDEST SWAP2 POP POP SWAP3 SWAP2 POP POP JUMP JUMPDEST PUSH1 0x0 DUP1 PUSH1 0x0 DUP1 PUSH1 0x80 DUP6 DUP8 SUB SLT ISZERO PUSH2 0xE8E JUMPI PUSH1 0x0 DUP1 PUSH2 0xE8B PUSH2 0x947 JUMP JUMPDEST POP POP JUMPDEST PUSH1 0x0 PUSH2 0xE9C DUP8 DUP3 DUP9 ADD PUSH2 0xD08 JUMP JUMPDEST SWAP5 POP POP PUSH1 0x20 PUSH2 0xEAD DUP8 DUP3 DUP9 ADD PUSH2 0xD08 JUMP JUMPDEST SWAP4 POP POP PUSH1 0x40 DUP6 ADD CALLDATALOAD PUSH8 0xFFFFFFFFFFFFFFFF DUP2 GT ISZERO PUSH2 0xED3 JUMPI PUSH1 0x0 DUP1 PUSH2 0xED0 PUSH2 0x947 JUMP JUMPDEST POP POP JUMPDEST PUSH2 0xEDF DUP8 DUP3 DUP9 ADD PUSH2 0xD47 JUMP JUMPDEST SWAP3 POP POP PUSH1 0x60 PUSH2 0xEF0 DUP8 DUP3 DUP9 ADD PUSH2 0xE13 JUMP JUMPDEST SWAP2 POP POP SWAP3 SWAP6 SWAP2 SWAP5 POP SWAP3 POP JUMP JUMPDEST PUSH1 0x0 DUP1 PUSH1 0x0 PUSH1 0x60 DUP5 DUP7 SUB SLT ISZERO PUSH2 0xF1A JUMPI PUSH1 0x0 DUP1 PUSH2 0xF17 PUSH2 0x947 JUMP JUMPDEST POP POP JUMPDEST PUSH1 0x0 PUSH2 0xF28 DUP7 DUP3 DUP8 ADD PUSH2 0xD08 JUMP JUMPDEST SWAP4 POP POP PUSH1 0x20 DUP5 ADD CALLDATALOAD PUSH8 0xFFFFFFFFFFFFFFFF DUP2 GT ISZERO PUSH2 0xF4E JUMPI PUSH1 0x0 DUP1 PUSH2 0xF4B PUSH2 0x947 JUMP JUMPDEST POP POP JUMPDEST PUSH2 0xF5A DUP7 DUP3 DUP8 ADD PUSH2 0xD47 JUMP JUMPDEST SWAP3 POP POP PUSH1 0x40 PUSH2 0xF6B DUP7 DUP3 DUP8 ADD PUSH2 0xE28 JUMP JUMPDEST SWAP2 POP POP SWAP3 POP SWAP3 POP SWAP3 JUMP JUMPDEST PUSH1 0x0 PUSH1 0x20 DUP3 DUP5 SUB SLT ISZERO PUSH2 0xF90 JUMPI PUSH1 0x0 DUP1 PUSH2 0xF8D PUSH2 0x947 JUMP JUMPDEST POP POP JUMPDEST PUSH1 0x0 PUSH2 0xF9E DUP5 DUP3 DUP6 ADD PUSH2 0xD32 JUMP JUMPDEST SWAP2 POP POP SWAP3 SWAP2 POP POP JUMP JUMPDEST PUSH1 0x0 PUSH1 0x20 DUP3 DUP5 SUB SLT ISZERO PUSH2 0xFC2 JUMPI PUSH1 0x0 DUP1 PUSH2 0xFBF PUSH2 0x947 JUMP JUMPDEST POP POP JUMPDEST PUSH1 0x0 DUP3 ADD CALLDATALOAD PUSH8 0xFFFFFFFFFFFFFFFF DUP2 GT ISZERO PUSH2 0xFE5 JUMPI PUSH1 0x0 DUP1 PUSH2 0xFE2 PUSH2 0x947 JUMP JUMPDEST POP POP JUMPDEST PUSH2 0xFF1 DUP5 DUP3 DUP6 ADD PUSH2 0xDAD JUMP JUMPDEST SWAP2 POP POP SWAP3 SWAP2 POP POP JUMP JUMPDEST PUSH2 0x100B PUSH2 0x1006 DUP3 PUSH2 0x142A JUMP JUMPDEST PUSH2 0x14CE JUMP JUMPDEST DUP3 MSTORE POP POP JUMP JUMPDEST PUSH2 0x101A DUP2 PUSH2 0x1418 JUMP JUMPDEST DUP3 MSTORE POP POP JUMP JUMPDEST PUSH2 0x1029 DUP2 PUSH2 0x143C JUMP JUMPDEST DUP3 MSTORE POP POP JUMP JUMPDEST PUSH1 0x0 PUSH2 0x103A DUP3 PUSH2 0x13D5 JUMP JUMPDEST PUSH2 0x1044 DUP2 DUP6 PUSH2 0x13EB JUMP JUMPDEST SWAP4 POP PUSH2 0x1054 DUP2 DUP6 PUSH1 0x20 DUP7 ADD PUSH2 0x149B JUMP JUMPDEST PUSH2 0x105D DUP2 PUSH2 0x14FC JUMP JUMPDEST DUP5 ADD SWAP2 POP POP SWAP3 SWAP2 POP POP JUMP JUMPDEST PUSH1 0x0 PUSH2 0x1073 DUP3 PUSH2 0x13D5 JUMP JUMPDEST PUSH2 0x107D DUP2 DUP6 PUSH2 0x13FC JUMP JUMPDEST SWAP4 POP PUSH2 0x108D DUP2 DUP6 PUSH1 0x20 DUP7 ADD PUSH2 0x149B JUMP JUMPDEST DUP1 DUP5 ADD SWAP2 POP POP SWAP3 SWAP2 POP POP JUMP JUMPDEST PUSH1 0x0 PUSH2 0x10A4 DUP3 PUSH2 0x13E0 JUMP JUMPDEST PUSH2 0x10AE DUP2 DUP6 PUSH2 0x1407 JUMP JUMPDEST SWAP4 POP PUSH2 0x10BE DUP2 DUP6 PUSH1 0x20 DUP7 ADD PUSH2 0x149B JUMP JUMPDEST PUSH2 0x10C7 DUP2 PUSH2 0x14FC JUMP JUMPDEST DUP5 ADD SWAP2 POP POP SWAP3 SWAP2 POP POP JUMP JUMPDEST PUSH1 0x0 PUSH2 0x10DF PUSH1 0x2B DUP4 PUSH2 0x1407 JUMP JUMPDEST SWAP2 POP PUSH32 0x50726F7669646564206D6573736167652068617320616C726561647920626565 PUSH1 0x0 DUP4 ADD MSTORE PUSH32 0x6E2072656365697665642E000000000000000000000000000000000000000000 PUSH1 0x20 DUP4 ADD MSTORE PUSH1 0x40 DUP3 ADD SWAP1 POP SWAP2 SWAP1 POP JUMP JUMPDEST PUSH1 0x0 PUSH2 0x1145 PUSH1 0x27 DUP4 PUSH2 0x1407 JUMP JUMPDEST SWAP2 POP PUSH32 0x50726F7669646564206D65737361676520636F756C64206E6F74206265207665 PUSH1 0x0 DUP4 ADD MSTORE PUSH32 0x7269666965642E00000000000000000000000000000000000000000000000000 PUSH1 0x20 DUP4 ADD MSTORE PUSH1 0x40 DUP3 ADD SWAP1 POP SWAP2 SWAP1 POP JUMP JUMPDEST PUSH2 0x11A7 DUP2 PUSH2 0x1472 JUMP JUMPDEST DUP3 MSTORE POP POP JUMP JUMPDEST PUSH2 0x11BE PUSH2 0x11B9 DUP3 PUSH2 0x1472 JUMP JUMPDEST PUSH2 0x14F2 JUMP JUMPDEST DUP3 MSTORE POP POP JUMP JUMPDEST PUSH1 0x0 PUSH2 0x11D0 DUP3 DUP5 PUSH2 0x1068 JUMP JUMPDEST SWAP2 POP DUP2 SWAP1 POP SWAP3 SWAP2 POP POP JUMP JUMPDEST PUSH1 0x0 PUSH2 0x11E7 DUP3 DUP7 PUSH2 0x1068 JUMP JUMPDEST SWAP2 POP PUSH2 0x11F3 DUP3 DUP6 PUSH2 0xFFA JUMP JUMPDEST PUSH1 0x14 DUP3 ADD SWAP2 POP PUSH2 0x1203 DUP3 DUP5 PUSH2 0x11AD JUMP JUMPDEST PUSH1 0x20 DUP3 ADD SWAP2 POP DUP2 SWAP1 POP SWAP5 SWAP4 POP POP POP POP JUMP JUMPDEST PUSH1 0x0 PUSH1 0x20 DUP3 ADD SWAP1 POP PUSH2 0x1229 PUSH1 0x0 DUP4 ADD DUP5 PUSH2 0x1011 JUMP JUMPDEST SWAP3 SWAP2 POP POP JUMP JUMPDEST PUSH1 0x0 PUSH1 0x80 DUP3 ADD SWAP1 POP PUSH2 0x1244 PUSH1 0x0 DUP4 ADD DUP8 PUSH2 0x1011 JUMP JUMPDEST PUSH2 0x1251 PUSH1 0x20 DUP4 ADD DUP7 PUSH2 0x1011 JUMP JUMPDEST DUP2 DUP2 SUB PUSH1 0x40 DUP4 ADD MSTORE PUSH2 0x1263 DUP2 DUP6 PUSH2 0x102F JUMP JUMPDEST SWAP1 POP PUSH2 0x1272 PUSH1 0x60 DUP4 ADD DUP5 PUSH2 0x119E JUMP JUMPDEST SWAP6 SWAP5 POP POP POP POP POP JUMP JUMPDEST PUSH1 0x0 PUSH1 0x20 DUP3 ADD SWAP1 POP PUSH2 0x1290 PUSH1 0x0 DUP4 ADD DUP5 PUSH2 0x1020 JUMP JUMPDEST SWAP3 SWAP2 POP POP JUMP JUMPDEST PUSH1 0x0 PUSH1 0x20 DUP3 ADD SWAP1 POP DUP2 DUP2 SUB PUSH1 0x0 DUP4 ADD MSTORE PUSH2 0x12B0 DUP2 DUP5 PUSH2 0x102F JUMP JUMPDEST SWAP1 POP SWAP3 SWAP2 POP POP JUMP JUMPDEST PUSH1 0x0 PUSH1 0x20 DUP3 ADD SWAP1 POP DUP2 DUP2 SUB PUSH1 0x0 DUP4 ADD MSTORE PUSH2 0x12D2 DUP2 DUP5 PUSH2 0x1099 JUMP JUMPDEST SWAP1 POP SWAP3 SWAP2 POP POP JUMP JUMPDEST PUSH1 0x0 PUSH1 0x20 DUP3 ADD SWAP1 POP DUP2 DUP2 SUB PUSH1 0x0 DUP4 ADD MSTORE PUSH2 0x12F3 DUP2 PUSH2 0x10D2 JUMP JUMPDEST SWAP1 POP SWAP2 SWAP1 POP JUMP JUMPDEST PUSH1 0x0 PUSH1 0x20 DUP3 ADD SWAP1 POP DUP2 DUP2 SUB PUSH1 0x0 DUP4 ADD MSTORE PUSH2 0x1313 DUP2 PUSH2 0x1138 JUMP JUMPDEST SWAP1 POP SWAP2 SWAP1 POP JUMP JUMPDEST PUSH1 0x0 PUSH1 0x20 DUP3 ADD SWAP1 POP PUSH2 0x132F PUSH1 0x0 DUP4 ADD DUP5 PUSH2 0x119E JUMP JUMPDEST SWAP3 SWAP2 POP POP JUMP JUMPDEST PUSH1 0x0 PUSH1 0x40 MLOAD SWAP1 POP DUP2 DUP2 ADD DUP2 DUP2 LT PUSH8 0xFFFFFFFFFFFFFFFF DUP3 GT OR ISZERO PUSH2 0x1361 JUMPI PUSH1 0x0 DUP1 PUSH2 0x135E PUSH2 0x947 JUMP JUMPDEST POP POP JUMPDEST DUP1 PUSH1 0x40 MSTORE POP SWAP2 SWAP1 POP JUMP JUMPDEST PUSH1 0x0 PUSH8 0xFFFFFFFFFFFFFFFF DUP3 GT ISZERO PUSH2 0x138B JUMPI PUSH1 0x0 DUP1 PUSH2 0x1388 PUSH2 0x947 JUMP JUMPDEST POP POP JUMPDEST PUSH1 0x1F NOT PUSH1 0x1F DUP4 ADD AND SWAP1 POP PUSH1 0x20 DUP2 ADD SWAP1 POP SWAP2 SWAP1 POP JUMP JUMPDEST PUSH1 0x0 PUSH8 0xFFFFFFFFFFFFFFFF DUP3 GT ISZERO PUSH2 0x13C0 JUMPI PUSH1 0x0 DUP1 PUSH2 0x13BD PUSH2 0x947 JUMP JUMPDEST POP POP JUMPDEST PUSH1 0x1F NOT PUSH1 0x1F DUP4 ADD AND SWAP1 POP PUSH1 0x20 DUP2 ADD SWAP1 POP SWAP2 SWAP1 POP JUMP JUMPDEST PUSH1 0x0 DUP2 MLOAD SWAP1 POP SWAP2 SWAP1 POP JUMP JUMPDEST PUSH1 0x0 DUP2 MLOAD SWAP1 POP SWAP2 SWAP1 POP JUMP JUMPDEST PUSH1 0x0 DUP3 DUP3 MSTORE PUSH1 0x20 DUP3 ADD SWAP1 POP SWAP3 SWAP2 POP POP JUMP JUMPDEST PUSH1 0x0 DUP2 SWAP1 POP SWAP3 SWAP2 POP POP JUMP JUMPDEST PUSH1 0x0 DUP3 DUP3 MSTORE PUSH1 0x20 DUP3 ADD SWAP1 POP SWAP3 SWAP2 POP POP JUMP JUMPDEST PUSH1 0x0 PUSH2 0x1423 DUP3 PUSH2 0x1452 JUMP JUMPDEST SWAP1 POP SWAP2 SWAP1 POP JUMP JUMPDEST PUSH1 0x0 PUSH2 0x1435 DUP3 PUSH2 0x1452 JUMP JUMPDEST SWAP1 POP SWAP2 SWAP1 POP JUMP JUMPDEST PUSH1 0x0 DUP2 ISZERO ISZERO SWAP1 POP SWAP2 SWAP1 POP JUMP JUMPDEST PUSH1 0x0 DUP2 SWAP1 POP SWAP2 SWAP1 POP JUMP JUMPDEST PUSH1 0x0 PUSH20 0xFFFFFFFFFFFFFFFFFFFFFFFFFFFFFFFFFFFFFFFF DUP3 AND SWAP1 POP SWAP2 SWAP1 POP JUMP JUMPDEST PUSH1 0x0 DUP2 SWAP1 POP SWAP2 SWAP1 POP JUMP JUMPDEST PUSH1 0x0 PUSH4 0xFFFFFFFF DUP3 AND SWAP1 POP SWAP2 SWAP1 POP JUMP JUMPDEST DUP3 DUP2 DUP4 CALLDATACOPY PUSH1 0x0 DUP4 DUP4 ADD MSTORE POP POP POP JUMP JUMPDEST PUSH1 0x0 JUMPDEST DUP4 DUP2 LT ISZERO PUSH2 0x14B9 JUMPI DUP1 DUP3 ADD MLOAD DUP2 DUP5 ADD MSTORE PUSH1 0x20 DUP2 ADD SWAP1 POP PUSH2 0x149E JUMP JUMPDEST DUP4 DUP2 GT ISZERO PUSH2 0x14C8 JUMPI PUSH1 0x0 DUP5 DUP5 ADD MSTORE JUMPDEST POP POP POP POP JUMP JUMPDEST PUSH1 0x0 PUSH2 0x14D9 DUP3 PUSH2 0x14E0 JUMP JUMPDEST SWAP1 POP SWAP2 SWAP1 POP JUMP JUMPDEST PUSH1 0x0 PUSH2 0x14EB DUP3 PUSH2 0x150D JUMP JUMPDEST SWAP1 POP SWAP2 SWAP1 POP JUMP JUMPDEST PUSH1 0x0 DUP2 SWAP1 POP SWAP2 SWAP1 POP JUMP JUMPDEST PUSH1 0x0 PUSH1 0x1F NOT PUSH1 0x1F DUP4 ADD AND SWAP1 POP SWAP2 SWAP1 POP JUMP JUMPDEST PUSH1 0x0 DUP2 PUSH1 0x60 SHL SWAP1 POP SWAP2 SWAP1 POP JUMP JUMPDEST PUSH2 0x1523 DUP2 PUSH2 0x1418 JUMP JUMPDEST DUP2 EQ PUSH2 0x1537 JUMPI PUSH1 0x0 DUP1 PUSH2 0x1534 PUSH2 0x947 JUMP JUMPDEST POP POP JUMPDEST POP JUMP JUMPDEST PUSH2 0x1543 DUP2 PUSH2 0x1448 JUMP JUMPDEST DUP2 EQ PUSH2 0x1557 JUMPI PUSH1 0x0 DUP1 PUSH2 0x1554 PUSH2 0x947 JUMP JUMPDEST POP POP JUMPDEST POP JUMP JUMPDEST PUSH2 0x1563 DUP2 PUSH2 0x1472 JUMP JUMPDEST DUP2 EQ PUSH2 0x1577 JUMPI PUSH1 0x0 DUP1 PUSH2 0x1574 PUSH2 0x947 JUMP JUMPDEST POP POP JUMPDEST POP JUMP JUMPDEST PUSH2 0x1583 DUP2 PUSH2 0x147C JUMP JUMPDEST DUP2 EQ PUSH2 0x1597 JUMPI PUSH1 0x0 DUP1 PUSH2 0x1594 PUSH2 0x947 JUMP JUMPDEST POP POP JUMPDEST POP JUMP "
    }
  },
  "interface": [
    {
      "inputs": [
        {
          "internalType": "address",
          "name": "_libAddressManager",
          "type": "address"
        }
      ],
      "payable": false,
      "stateMutability": "nonpayable",
      "type": "constructor"
    },
    {
      "constant": true,
      "inputs": [],
      "name": "messageNonce",
      "outputs": [
        {
          "internalType": "uint256",
          "name": "",
          "type": "uint256"
        }
      ],
      "payable": false,
      "stateMutability": "view",
      "type": "function"
    },
    {
      "constant": false,
      "inputs": [
        {
          "internalType": "address",
          "name": "_target",
          "type": "address"
        },
        {
          "internalType": "address",
          "name": "_sender",
          "type": "address"
        },
        {
          "internalType": "bytes",
          "name": "_message",
          "type": "bytes"
        },
        {
          "internalType": "uint256",
          "name": "_messageNonce",
          "type": "uint256"
        }
      ],
      "name": "relayMessage",
      "outputs": [],
      "payable": false,
      "stateMutability": "nonpayable",
      "type": "function"
    },
    {
      "constant": true,
      "inputs": [
        {
          "internalType": "bytes32",
          "name": "",
          "type": "bytes32"
        }
      ],
      "name": "relayedMessages",
      "outputs": [
        {
          "internalType": "bool",
          "name": "",
          "type": "bool"
        }
      ],
      "payable": false,
      "stateMutability": "view",
      "type": "function"
    },
    {
      "constant": true,
      "inputs": [
        {
          "internalType": "string",
          "name": "_name",
          "type": "string"
        }
      ],
      "name": "resolve",
      "outputs": [
        {
          "internalType": "address",
          "name": "_contract",
          "type": "address"
        }
      ],
      "payable": false,
      "stateMutability": "view",
      "type": "function"
    },
    {
      "constant": false,
      "inputs": [
        {
          "internalType": "address",
          "name": "_target",
          "type": "address"
        },
        {
          "internalType": "bytes",
          "name": "_message",
          "type": "bytes"
        },
        {
          "internalType": "uint32",
          "name": "_gasLimit",
          "type": "uint32"
        }
      ],
      "name": "sendMessage",
      "outputs": [],
      "payable": false,
      "stateMutability": "nonpayable",
      "type": "function"
    },
    {
      "constant": true,
      "inputs": [
        {
          "internalType": "bytes32",
          "name": "",
          "type": "bytes32"
        }
      ],
      "name": "sentMessages",
      "outputs": [
        {
          "internalType": "bool",
          "name": "",
          "type": "bool"
        }
      ],
      "payable": false,
      "stateMutability": "view",
      "type": "function"
    },
    {
      "constant": true,
      "inputs": [
        {
          "internalType": "bytes32",
          "name": "",
          "type": "bytes32"
        }
      ],
      "name": "successfulMessages",
      "outputs": [
        {
          "internalType": "bool",
          "name": "",
          "type": "bool"
        }
      ],
      "payable": false,
      "stateMutability": "view",
      "type": "function"
    },
    {
      "constant": true,
      "inputs": [],
      "name": "xDomainMessageSender",
      "outputs": [
        {
          "internalType": "address",
          "name": "",
          "type": "address"
        }
      ],
      "payable": false,
      "stateMutability": "view",
      "type": "function"
    }
  ],
  "bytecode": "60806040523480156200001c5760008062000019620000a0565b50505b506040516200182d3803806200182d8339818101604052620000429190810190620001f3565b8080600560006101000a816200005762000110565b8173ffffffffffffffffffffffffffffffffffffffff021916908373ffffffffffffffffffffffffffffffffffffffff160217906200009562000175565b505050505062000283565b632a2a7adb598160e01b8152600481016020815285602082015260005b86811015620000dd578086015181604084010152602081019050620000bd565b506020828760640184336000905af158600e01573d6000803e3d6000fd5b3d6001141558600a015760016000f35b505050565b6303daa959598160e01b8152836004820152602081602483336000905af158600e01573d6000803e3d6000fd5b3d6001141558600a015760016000f35b8051935060005b6040811015620001705760008183015260208101905062000154565b505050565b6322bd64c0598160e01b8152836004820152846024820152600081604483336000905af158600e01573d6000803e3d6000fd5b3d6001141558600a015760016000f35b60005b6040811015620001d757600081830152602081019050620001bb565b505050565b600081519050620001ed816200025e565b92915050565b60006020828403121562000211576000806200020e620000a0565b50505b60006200022184828501620001dc565b91505092915050565b600062000237826200023e565b9050919050565b600073ffffffffffffffffffffffffffffffffffffffff82169050919050565b62000269816200022a565b811462000280576000806200027d620000a0565b50505b50565b61159a80620002936000396000f3fe608060405234801561001957600080610016610947565b50505b50600436106100915760003560e01c806382e3702d1161006457806382e3702d14610139578063b1b1b20914610169578063cbd4ece914610199578063ecc70428146101b557610091565b806321d800ec1461009f5780633dbb202b146100cf578063461a4478146100eb5780636e296e451461011b575b60008061009c610947565b50505b6100b960048036036100b49190810190610f75565b6101d3565b6040516100c6919061127b565b60405180910390f35b6100e960048036036100e49190810190610efc565b6101fa565b005b61010560048036036101009190810190610fa7565b610295565b6040516101129190611214565b60405180910390f35b610123610375565b6040516101309190611214565b60405180910390f35b610153600480360361014e9190810190610f75565b6103a2565b604051610160919061127b565b60405180910390f35b610183600480360361017e9190810190610f75565b6103c9565b604051610190919061127b565b60405180910390f35b6101b360048036036101ae9190810190610e6f565b6103f0565b005b6101bd610673565b6040516101ca919061131a565b60405180910390f35b6000602052806000526040600020600091506101ed6109b5565b906101000a900460ff1681565b6060610219845a610209610a18565b8560036102146109b5565b610680565b905061022b818363ffffffff16610720565b600160036000828261023b6109b5565b019250508190610249610a75565b5050506001600260008380519060200120815260200190815260200160002060006101000a816102776109b5565b8160ff0219169083151502179061028c610a75565b50505050505050565b600060056000906102a46109b5565b906101000a900473ffffffffffffffffffffffffffffffffffffffff1673ffffffffffffffffffffffffffffffffffffffff1663bf40fac1836040518263ffffffff1660e01b81526004016102f991906112b8565b602060405180830381868061030c610ada565b1580156103215760008061031e610947565b50505b505a61032b610b3d565b505050505015801561034a573d6000803e3d6000610347610947565b50505b505050506040513d601f19601f8201168201806040525061036e9190810190610e3d565b9050919050565b60046000906103826109b5565b906101000a900473ffffffffffffffffffffffffffffffffffffffff1681565b6002602052806000526040600020600091506103bc6109b5565b906101000a900460ff1681565b6001602052806000526040600020600091506103e36109b5565b906101000a900460ff1681565b600115156103fc6107f2565b151514610447576040517f08c379a0000000000000000000000000000000000000000000000000000000008152600401610435906112fa565b60405180910390610444610947565b50505b606061045585858585610680565b90506000151560016000838051906020012081526020019081526020016000206000906104806109b5565b906101000a900460ff161515146104d5576040517f08c379a00000000000000000000000000000000000000000000000000000000081526004016104c3906112da565b604051809103906104d2610947565b50505b83600460006101000a816104e76109b5565b8173ffffffffffffffffffffffffffffffffffffffff021916908373ffffffffffffffffffffffffffffffffffffffff16021790610523610a75565b50505060008573ffffffffffffffffffffffffffffffffffffffff168460405161054d91906111c4565b6000604051808303816000865a610562610bf4565b5050505050509150503d8060008114610597576040519150601f19603f3d011682016040523d82523d6000602084013e61059c565b606091505b505090506001151581151514156105f05760018060008480519060200120815260200190815260200160002060006101000a816105d76109b5565b8160ff021916908315150217906105ec610a75565b5050505b6000825a6105fc610a18565b5a610605610cab565b604051602001610617939291906111db565b604051602081830303815290604052805190602001209050600160008083815260200190815260200160002060006101000a816106526109b5565b8160ff02191690831515021790610667610a75565b50505050505050505050565b600361067d6109b5565b81565b606084848484604051602401610699949392919061122f565b6040516020818303038152906040527fcbd4ece9000000000000000000000000000000000000000000000000000000007bffffffffffffffffffffffffffffffffffffffffffffffffffffffff19166020820180517bffffffffffffffffffffffffffffffffffffffffffffffffffffffff83818316178352505050509050949350505050565b61075e6040518060400160405280601781526020017f4f564d5f4c32546f4c314d657373616765506173736572000000000000000000815250610295565b73ffffffffffffffffffffffffffffffffffffffff1663cafa81dc836040518263ffffffff1660e01b81526004016107969190611296565b600060405180830381600087806107ab610ada565b1580156107c0576000806107bd610947565b50505b505a6107ca610bf4565b5050505050501580156107ea573d6000803e3d60006107e7610947565b50505b505050505050565b60006108326040518060400160405280601a81526020017f4f564d5f4c3143726f7373446f6d61696e4d657373656e676572000000000000815250610295565b73ffffffffffffffffffffffffffffffffffffffff166108866040518060400160405280601381526020017f4f564d5f4c314d65737361676553656e64657200000000000000000000000000815250610295565b73ffffffffffffffffffffffffffffffffffffffff1663d20341066040518163ffffffff1660e01b8152600401602060405180830381600087806108c8610ada565b1580156108dd576000806108da610947565b50505b505a6108e7610bf4565b505050505050158015610907573d6000803e3d6000610904610947565b50505b505050506040513d601f19601f8201168201806040525061092b9190810190610e3d565b73ffffffffffffffffffffffffffffffffffffffff1614905090565b632a2a7adb598160e01b8152600481016020815285602082015260005b86811015610982578086015181604084010152602081019050610964565b506020828760640184336000905af158600e01573d6000803e3d6000fd5b3d6001141558600a015760016000f35b505050565b6303daa959598160e01b8152836004820152602081602483336000905af158600e01573d6000803e3d6000fd5b3d6001141558600a015760016000f35b8051935060005b6040811015610a13576000818301526020810190506109f9565b505050565b6373509064598160e01b8152602081600483336000905af158600e01573d6000803e3d6000fd5b3d6001141558600a015760016000f35b8051935060005b6040811015610a7057600081830152602081019050610a56565b505050565b6322bd64c0598160e01b8152836004820152846024820152600081604483336000905af158600e01573d6000803e3d6000fd5b3d6001141558600a015760016000f35b60005b6040811015610ad557600081830152602081019050610abb565b505050565b638435035b598160e01b8152836004820152602081602483336000905af158600e01573d6000803e3d6000fd5b3d6001141558600a015760016000f35b8051935060005b6040811015610b3857600081830152602081019050610b1e565b505050565b638540661f598160e01b8152836004820152846024820152606060448201528660648201526084810160005b88811015610b84578088015181830152602081019050610b69565b506060828960a40184336000905af158600e01573d6000803e3d6000fd5b3d6001141558600a015760016000f35b815160408301513d6000853e8b8b82606087013350600060045af15059845b81811015610be85760008152602081019050610bd1565b50829c50505050505050565b6385979f76598160e01b8152836004820152846024820152606060448201528760648201526084810160005b89811015610c3b578089015181830152602081019050610c20565b506060828a60a40184336000905af158600e01573d6000803e3d6000fd5b3d6001141558600a015760016000f35b815160408301513d6000853e8c8c82606087013350600060045af15059845b81811015610c9f5760008152602081019050610c88565b50829d50505050505050565b635a98c361598160e01b8152602081600483336000905af158600e01573d6000803e3d6000fd5b3d6001141558600a015760016000f35b8051935060005b6040811015610d0357600081830152602081019050610ce9565b505050565b600081359050610d178161151a565b92915050565b600081519050610d2c8161151a565b92915050565b600081359050610d418161153a565b92915050565b600082601f830112610d6157600080610d5e610947565b50505b8135610d74610d6f8261136b565b611335565b91508082526020830160208301858383011115610d9957600080610d96610947565b50505b610da483828461148c565b50505092915050565b600082601f830112610dc757600080610dc4610947565b50505b8135610dda610dd5826113a0565b611335565b91508082526020830160208301858383011115610dff57600080610dfc610947565b50505b610e0a83828461148c565b50505092915050565b600081359050610e228161155a565b92915050565b600081359050610e378161157a565b92915050565b600060208284031215610e5857600080610e55610947565b50505b6000610e6684828501610d1d565b91505092915050565b60008060008060808587031215610e8e57600080610e8b610947565b50505b6000610e9c87828801610d08565b9450506020610ead87828801610d08565b935050604085013567ffffffffffffffff811115610ed357600080610ed0610947565b50505b610edf87828801610d47565b9250506060610ef087828801610e13565b91505092959194509250565b600080600060608486031215610f1a57600080610f17610947565b50505b6000610f2886828701610d08565b935050602084013567ffffffffffffffff811115610f4e57600080610f4b610947565b50505b610f5a86828701610d47565b9250506040610f6b86828701610e28565b9150509250925092565b600060208284031215610f9057600080610f8d610947565b50505b6000610f9e84828501610d32565b91505092915050565b600060208284031215610fc257600080610fbf610947565b50505b600082013567ffffffffffffffff811115610fe557600080610fe2610947565b50505b610ff184828501610dad565b91505092915050565b61100b6110068261142a565b6114ce565b82525050565b61101a81611418565b82525050565b6110298161143c565b82525050565b600061103a826113d5565b61104481856113eb565b935061105481856020860161149b565b61105d816114fc565b840191505092915050565b6000611073826113d5565b61107d81856113fc565b935061108d81856020860161149b565b80840191505092915050565b60006110a4826113e0565b6110ae8185611407565b93506110be81856020860161149b565b6110c7816114fc565b840191505092915050565b60006110df602b83611407565b91507f50726f7669646564206d6573736167652068617320616c72656164792062656560008301527f6e2072656365697665642e0000000000000000000000000000000000000000006020830152604082019050919050565b6000611145602783611407565b91507f50726f7669646564206d65737361676520636f756c64206e6f7420626520766560008301527f7269666965642e000000000000000000000000000000000000000000000000006020830152604082019050919050565b6111a781611472565b82525050565b6111be6111b982611472565b6114f2565b82525050565b60006111d08284611068565b915081905092915050565b60006111e78286611068565b91506111f38285610ffa565b60148201915061120382846111ad565b602082019150819050949350505050565b60006020820190506112296000830184611011565b92915050565b60006080820190506112446000830187611011565b6112516020830186611011565b8181036040830152611263818561102f565b9050611272606083018461119e565b95945050505050565b60006020820190506112906000830184611020565b92915050565b600060208201905081810360008301526112b0818461102f565b905092915050565b600060208201905081810360008301526112d28184611099565b905092915050565b600060208201905081810360008301526112f3816110d2565b9050919050565b6000602082019050818103600083015261131381611138565b9050919050565b600060208201905061132f600083018461119e565b92915050565b6000604051905081810181811067ffffffffffffffff821117156113615760008061135e610947565b50505b8060405250919050565b600067ffffffffffffffff82111561138b57600080611388610947565b50505b601f19601f8301169050602081019050919050565b600067ffffffffffffffff8211156113c0576000806113bd610947565b50505b601f19601f8301169050602081019050919050565b600081519050919050565b600081519050919050565b600082825260208201905092915050565b600081905092915050565b600082825260208201905092915050565b600061142382611452565b9050919050565b600061143582611452565b9050919050565b60008115159050919050565b6000819050919050565b600073ffffffffffffffffffffffffffffffffffffffff82169050919050565b6000819050919050565b600063ffffffff82169050919050565b82818337600083830152505050565b60005b838110156114b957808201518184015260208101905061149e565b838111156114c8576000848401525b50505050565b60006114d9826114e0565b9050919050565b60006114eb8261150d565b9050919050565b6000819050919050565b6000601f19601f8301169050919050565b60008160601b9050919050565b61152381611418565b811461153757600080611534610947565b50505b50565b61154381611448565b811461155757600080611554610947565b50505b50565b61156381611472565b811461157757600080611574610947565b50505b50565b6115838161147c565b811461159757600080611594610947565b50505b5056"
}