{
  "_format": "hh-sol-artifact-1",
  "contractName": "OVM_L1ETHGateway",
  "sourceName": "contracts/optimistic-ethereum/OVM/bridge/ETH/OVM_L1ETHGateway.sol",
  "abi": [
    {
      "inputs": [
        {
          "internalType": "address",
          "name": "_libAddressManager",
          "type": "address"
        },
        {
          "internalType": "address",
          "name": "_l2ERC20Gateway",
          "type": "address"
        }
      ],
      "stateMutability": "nonpayable",
      "type": "constructor"
    },
    {
      "anonymous": false,
      "inputs": [
        {
          "indexed": true,
          "internalType": "address",
          "name": "_from",
          "type": "address"
        },
        {
          "indexed": false,
          "internalType": "address",
          "name": "_to",
          "type": "address"
        },
        {
          "indexed": false,
          "internalType": "uint256",
          "name": "_amount",
          "type": "uint256"
        }
      ],
      "name": "DepositInitiated",
      "type": "event"
    },
    {
      "anonymous": false,
      "inputs": [
        {
          "indexed": true,
          "internalType": "address",
          "name": "_to",
          "type": "address"
        },
        {
          "indexed": false,
          "internalType": "uint256",
          "name": "_amount",
          "type": "uint256"
        }
      ],
      "name": "WithdrawalFinalized",
      "type": "event"
    },
    {
      "inputs": [],
      "name": "deposit",
      "outputs": [],
      "stateMutability": "payable",
      "type": "function"
    },
    {
      "inputs": [
        {
          "internalType": "address",
          "name": "_to",
          "type": "address"
        }
      ],
      "name": "depositTo",
      "outputs": [],
      "stateMutability": "payable",
      "type": "function"
    },
    {
      "inputs": [
        {
          "internalType": "address",
          "name": "_to",
          "type": "address"
        },
        {
          "internalType": "uint256",
          "name": "_amount",
          "type": "uint256"
        }
      ],
      "name": "finalizeWithdrawal",
      "outputs": [],
      "stateMutability": "nonpayable",
      "type": "function"
    },
    {
      "inputs": [],
      "name": "l2ERC20Gateway",
      "outputs": [
        {
          "internalType": "address",
          "name": "",
          "type": "address"
        }
      ],
      "stateMutability": "view",
      "type": "function"
    },
    {
      "inputs": [],
      "name": "messenger",
      "outputs": [
        {
          "internalType": "contract iAbs_BaseCrossDomainMessenger",
          "name": "",
          "type": "address"
        }
      ],
      "stateMutability": "view",
      "type": "function"
    },
    {
      "inputs": [
        {
          "internalType": "string",
          "name": "_name",
          "type": "string"
        }
      ],
      "name": "resolve",
      "outputs": [
        {
          "internalType": "address",
          "name": "_contract",
          "type": "address"
        }
      ],
      "stateMutability": "view",
      "type": "function"
    },
    {
      "stateMutability": "payable",
      "type": "receive"
    }
  ],
  "bytecode": "0x608060405234801561001057600080fd5b5060405161090c38038061090c83398101604081905261002f91610085565b600080546001600160a01b0319908116909155600180546001600160a01b03948516908316179055600280549290931691161790556100b7565b80516001600160a01b038116811461008057600080fd5b919050565b60008060408385031215610097578182fd5b6100a083610069565b91506100ae60208401610069565b90509250929050565b610846806100c66000396000f3fe6080604052600436106100595760003560e01c80633cb747bf14610065578063461a447814610090578063655b04e3146100b0578063b760faf9146100c5578063d0e30db0146100da578063f4f7b41a146100e257610060565b3661006057005b600080fd5b34801561007157600080fd5b5061007a610102565b6040516100879190610707565b60405180910390f35b34801561009c57600080fd5b5061007a6100ab366004610639565b610111565b3480156100bc57600080fd5b5061007a6101ed565b6100d86100d33660046105ef565b6101fc565b005b6100d8610209565b3480156100ee57600080fd5b506100d86100fd366004610610565b610215565b6000546001600160a01b031681565b60015460405163bf40fac160e01b81526020600482018181528451602484015284516000946001600160a01b03169363bf40fac1938793928392604401918501908083838b5b8381101561016f578181015183820152602001610157565b50505050905090810190601f16801561019c5780820380516001836020036101000a031916815260200191505b509250505060206040518083038186803b1580156101b957600080fd5b505afa1580156101cd573d6000803e3d6000fd5b505050506040513d60208110156101e357600080fd5b505190505b919050565b6002546001600160a01b031681565b6102063382610383565b50565b6102133333610383565b565b6002546001600160a01b031661022961042a565b6001600160a01b0316336001600160a01b0316146102785760405162461bcd60e51b815260040180806020018281038252602e815260200180610792602e913960400191505060405180910390fd5b806001600160a01b031661028a61042a565b6001600160a01b0316636e296e456040518163ffffffff1660e01b815260040160206040518083038186803b1580156102c257600080fd5b505afa1580156102d6573d6000803e3d6000fd5b505050506040513d60208110156102ec57600080fd5b50516001600160a01b0316146103335760405162461bcd60e51b81526004018080602001828103825260308152602001806107c06030913960400191505060405180910390fd5b61033d8383610452565b826001600160a01b03167f9e5c4f9f4e46b8629d3dda85f43a69194f50254404a72dc62b9e932d9c94eda8836040516103769190610788565b60405180910390a2505050565b6000638d6e9a5b60e01b82346040516024016103a092919061071b565b60408051601f198184030181529190526020810180516001600160e01b03166001600160e01b0319909316929092179091526002549091506103ef906001600160a01b031682620f42406104ed565b826001600160a01b03167ff531653a5819e21265de50358610d55dbe6594c61605b209dfa4280d277938c1833460405161037692919061071b565b600061044d6040518060600160405280602181526020016107f060219139610111565b905090565b604080516000808252602082019092526001600160a01b03841690839060405161047c91906106ce565b60006040518083038185875af1925050503d80600081146104b9576040519150601f19603f3d011682016040523d82523d6000602084013e6104be565b606091505b50509050806104e85760405162461bcd60e51b81526004016104df90610734565b60405180910390fd5b505050565b6104f561042a565b6001600160a01b0316633dbb202b8484846040518463ffffffff1660e01b815260040180846001600160a01b03168152602001806020018363ffffffff168152602001828103825284818151815260200191508051906020019080838360005b8381101561056d578181015183820152602001610555565b50505050905090810190601f16801561059a5780820380516001836020036101000a031916815260200191505b50945050505050600060405180830381600087803b1580156105bb57600080fd5b505af11580156105cf573d6000803e3d6000fd5b50505050505050565b80356001600160a01b03811681146101e857600080fd5b600060208284031215610600578081fd5b610609826105d8565b9392505050565b60008060408385031215610622578081fd5b61062b836105d8565b946020939093013593505050565b6000602080838503121561064b578182fd5b823567ffffffffffffffff80821115610662578384fd5b818501915085601f830112610675578384fd5b81358181111561068157fe5b604051601f8201601f191681018501838111828210171561069e57fe5b60405281815283820185018810156106b4578586fd5b818585018683013790810190930193909352509392505050565b60008251815b818110156106ee57602081860181015185830152016106d4565b818111156106fc5782828501525b509190910192915050565b6001600160a01b0391909116815260200190565b6001600160a01b03929092168252602082015260400190565b60208082526034908201527f5472616e7366657248656c7065723a3a736166655472616e736665724554483a60408201527308115512081d1c985b9cd9995c8819985a5b195960621b606082015260800190565b9081526020019056fe4f564d5f58434841494e3a206d657373656e67657220636f6e747261637420756e61757468656e746963617465644f564d5f58434841494e3a2077726f6e672073656e646572206f662063726f73732d646f6d61696e206d65737361676550726f78795f5f4f564d5f4c3143726f7373446f6d61696e4d657373656e676572a2646970667358221220d04cb4bb9ff591cea0b09118bc05bedd4b201da8110c863191e32e8967c000dc64736f6c63430007060033",
  "linkReferences": {},
  "deployedLinkReferences": {},
  "storageLayout": {
    "storage": [
      {
        "astId": 1144,
        "contract": "contracts/optimistic-ethereum/OVM/bridge/ETH/OVM_L1ETHGateway.sol:OVM_L1ETHGateway",
        "label": "messenger",
        "offset": 0,
        "slot": "0",
        "type": "t_contract(iAbs_BaseCrossDomainMessenger)10454"
      },
      {
        "astId": 12661,
        "contract": "contracts/optimistic-ethereum/OVM/bridge/ETH/OVM_L1ETHGateway.sol:OVM_L1ETHGateway",
        "label": "libAddressManager",
        "offset": 0,
        "slot": "1",
        "type": "t_contract(Lib_AddressManager)12654"
      },
      {
        "astId": 988,
        "contract": "contracts/optimistic-ethereum/OVM/bridge/ETH/OVM_L1ETHGateway.sol:OVM_L1ETHGateway",
        "label": "l2ERC20Gateway",
        "offset": 0,
        "slot": "2",
        "type": "t_address"
      }
    ],
    "types": {
      "t_address": {
        "encoding": "inplace",
        "label": "address",
        "numberOfBytes": "20"
      },
      "t_contract(Lib_AddressManager)12654": {
        "encoding": "inplace",
        "label": "contract Lib_AddressManager",
        "numberOfBytes": "20"
      },
      "t_contract(iAbs_BaseCrossDomainMessenger)10454": {
        "encoding": "inplace",
        "label": "contract iAbs_BaseCrossDomainMessenger",
        "numberOfBytes": "20"
      }
    }
  }
}